{
  "contractName": "ArtistFactory",
  "abi": [
    {
      "anonymous": false,
      "inputs": [
        {
          "indexed": true,
          "internalType": "address",
          "name": "artistContract",
          "type": "address"
        },
        {
          "indexed": true,
          "internalType": "address",
          "name": "artist",
          "type": "address"
        },
        {
          "indexed": true,
          "internalType": "address",
          "name": "eventContract",
          "type": "address"
        }
      ],
      "name": "ArtistCreated",
      "type": "event"
    },
    {
      "anonymous": false,
      "inputs": [
        {
          "indexed": false,
          "internalType": "address",
          "name": "eventFactory",
          "type": "address"
        }
      ],
      "name": "EventFactorySet",
      "type": "event"
    },
    {
      "anonymous": false,
      "inputs": [
        {
          "indexed": true,
          "internalType": "address",
          "name": "previousOwner",
          "type": "address"
        },
        {
          "indexed": true,
          "internalType": "address",
          "name": "newOwner",
          "type": "address"
        }
      ],
      "name": "OwnershipTransferred",
      "type": "event"
    },
    {
      "inputs": [
        {
          "internalType": "uint256",
          "name": "",
          "type": "uint256"
        }
      ],
      "name": "artists",
      "outputs": [
        {
          "internalType": "address",
          "name": "",
          "type": "address"
        }
      ],
      "stateMutability": "view",
      "type": "function",
      "constant": true
    },
    {
      "inputs": [],
      "name": "eventFactory",
      "outputs": [
        {
          "internalType": "contract EventFactory",
          "name": "",
          "type": "address"
        }
      ],
      "stateMutability": "view",
      "type": "function",
      "constant": true
    },
    {
      "inputs": [
        {
          "internalType": "address",
          "name": "",
          "type": "address"
        },
        {
          "internalType": "uint256",
          "name": "",
          "type": "uint256"
        }
      ],
      "name": "eventToArtists",
      "outputs": [
        {
          "internalType": "address",
          "name": "",
          "type": "address"
        }
      ],
      "stateMutability": "view",
      "type": "function",
      "constant": true
    },
    {
      "inputs": [
        {
          "internalType": "address",
          "name": "",
          "type": "address"
        }
      ],
      "name": "isArtist",
      "outputs": [
        {
          "internalType": "bool",
          "name": "",
          "type": "bool"
        }
      ],
      "stateMutability": "view",
      "type": "function",
      "constant": true
    },
    {
      "inputs": [],
      "name": "owner",
      "outputs": [
        {
          "internalType": "address",
          "name": "",
          "type": "address"
        }
      ],
      "stateMutability": "view",
      "type": "function",
      "constant": true
    },
    {
      "inputs": [],
      "name": "renounceOwnership",
      "outputs": [],
      "stateMutability": "nonpayable",
      "type": "function"
    },
    {
      "inputs": [
        {
          "internalType": "address",
          "name": "newOwner",
          "type": "address"
        }
      ],
      "name": "transferOwnership",
      "outputs": [],
      "stateMutability": "nonpayable",
      "type": "function"
    },
    {
      "inputs": [
        {
          "internalType": "address",
          "name": "_eventFactory",
          "type": "address"
        }
      ],
      "name": "setEventFactory",
      "outputs": [],
      "stateMutability": "nonpayable",
      "type": "function"
    },
    {
      "inputs": [
        {
          "internalType": "address",
          "name": "_eventContract",
          "type": "address"
        },
        {
          "internalType": "address",
          "name": "_artist",
          "type": "address"
        }
      ],
      "name": "createArtistContract",
      "outputs": [
        {
          "internalType": "address",
          "name": "",
          "type": "address"
        }
      ],
      "stateMutability": "nonpayable",
      "type": "function"
    },
    {
      "inputs": [],
      "name": "getArtistCount",
      "outputs": [
        {
          "internalType": "uint256",
          "name": "",
          "type": "uint256"
        }
      ],
      "stateMutability": "view",
      "type": "function",
      "constant": true
    },
    {
      "inputs": [
        {
          "internalType": "address",
          "name": "_eventContract",
          "type": "address"
        }
      ],
      "name": "getEventArtists",
      "outputs": [
        {
          "internalType": "address[]",
          "name": "",
          "type": "address[]"
        }
      ],
      "stateMutability": "view",
      "type": "function",
      "constant": true
    },
    {
      "inputs": [
        {
          "internalType": "uint256",
          "name": "start",
          "type": "uint256"
        },
        {
          "internalType": "uint256",
          "name": "end",
          "type": "uint256"
        }
      ],
      "name": "getArtists",
      "outputs": [
        {
          "internalType": "address[]",
          "name": "",
          "type": "address[]"
        }
      ],
      "stateMutability": "view",
      "type": "function",
      "constant": true
    }
  ],
  "bytecode": "0x6080806040523461005b5760008054336001600160a01b0319821681178355916001600160a01b03909116907f8be0079c531659141344cd1fd0a4f28419497f9722a3daafe3b4186f6b6457e09080a3611e4690816100618239f35b600080fdfe6080604081815260048036101561001557600080fd5b600092833560e01c9081630f0d74fd14610805575080631fd1d0281461069f5780636b2f65b0146106615780636fdbd3f614610638578063715018a6146105de578063753dfb15146105835780637e6010c5146102b15780638da5cb5b14610289578063aaa3456914610266578063cd7e10c114610223578063d43cbb15146101765763f2fde38b146100a757600080fd5b34610172576020366003190112610172576100c061088a565b906100c961094e565b6001600160a01b03918216928315610120575050600054826bffffffffffffffffffffffff60a01b821617600055167f8be0079c531659141344cd1fd0a4f28419497f9722a3daafe3b4186f6b6457e0600080a380f35b906020608492519162461bcd60e51b8352820152602660248201527f4f776e61626c653a206e6577206f776e657220697320746865207a65726f206160448201526564647265737360d01b6064820152fd5b8280fd5b5090346101725760203660031901126101725761019161088a565b61019961094e565b6001600160a01b03169182156101e95750600180546001600160a01b03191683179055519081527fa89d78e5aee5b5925ac4dc30221ab416243afbe7d73edbb8155177696a34cc0690602090a180f35b6020606492519162461bcd60e51b83528201526015602482015274496e76616c6964206576656e7420666163746f727960581b6044820152fd5b5034610172576020366003190112610172573591600254831015610263575061024d6020926108e9565b905491519160018060a01b039160031b1c168152f35b80fd5b5050346102855781600319360112610285576020906002549051908152f35b5080fd5b505034610285578160031936011261028557905490516001600160a01b039091168152602090f35b5082346102635782600319360112610263576102cb61088a565b926001600160a01b03926024918235858116929083900361048c57856001541693841561054a578697839796975198899163e5face6160e01b835216958684830152818360209b8c935afa9081156104b1578891610510575b50156104d75782516114068082019082821067ffffffffffffffff8311176104bb5785918391610a0b8339888152878c82015203019088f080156104cd578616956002546801000000000000000090818110156104bb5780600161038b92016002556108e9565b81549060031b90848b831b921b191617905587895260038a52848920600160ff19825416179055868952838a528489208054918210156104bb57906103d591600182018155610936565b819291549060031b9189831b921b1916179055853b1561049a57825163f2fde38b60e01b815282810186905287818381838b5af180156104b15761049e575b50843b1561049a578251638fb14b4f60e01b8152918201869052869082908183885af18015610490578592918791610473575b50507f033444ff509e871c7c814314cb459a060f218fc725a3c7e671a93d473fa57eda90519580a48152f35b61047f919293506109a6565b61048c5783908588610447565b8480fd5b82513d88823e3d90fd5b8680fd5b6104aa909791976109a6565b9588610414565b84513d8a823e3d90fd5b634e487b7160e01b8a5260418552838afd5b83513d89823e3d90fd5b60169088606494519362461bcd60e51b855284015282015275125b9d985b1a5908195d995b9d0818dbdb9d1c9858dd60521b6044820152fd5b90508881813d8311610543575b61052781836109d0565b8101031261053f5751801515810361053f5789610324565b8780fd5b503d61051d565b6015906020606494519362461bcd60e51b855284015282015274115d995b9d08199858dd1bdc9e481b9bdd081cd95d605a1b6044820152fd5b50913461026357816003193601126102635761059d61088a565b6001600160a01b039081168252602093909352818120805460243594929085101561026357506020936105cf91610936565b92905490519260031b1c168152f35b83346102635780600319360112610263576105f761094e565b80546001600160a01b03198116825581906001600160a01b03167f8be0079c531659141344cd1fd0a4f28419497f9722a3daafe3b4186f6b6457e08280a380f35b50503461028557816003193601126102855760015490516001600160a01b039091168152602090f35b5050346102855760203660031901126102855760209160ff9082906001600160a01b0361068c61088a565b1681526003855220541690519015158152f35b50919034610285578060031936011261028557823591602480359182851115806107fa575b156107c8578483039283116107b8576001958684018094116107a8576106e9846109f2565b956106f6865197886109d0565b848752601f19610705866109f2565b019060209136838a0137835b868110610729578751806107258b826108a5565b0390f35b8082018083116107965761073c906108e9565b90548a518310156107845760039190911b1c6001600160a01b0316600582901b8a018401526000198114610771578901610711565b5050634e487b7160e01b83525060119052fd5b634e487b7160e01b8752603286528787fd5b634e487b7160e01b8652601185528686fd5b634e487b7160e01b825260119052fd5b634e487b7160e01b815260118652fd5b835162461bcd60e51b8152602081880152600d818401526c496e76616c69642072616e676560981b6044820152606490fd5b5060025483106106c4565b92919050346108865760209384600319360112610263576001600160a01b039490918561083061088a565b16835281528282209485549182865280860196845280842093915b83831061086d576107258787610863828c03836109d0565b51918291826108a5565b845481168852968101966001948501949092019161084b565b8380fd5b600435906001600160a01b03821682036108a057565b600080fd5b6020908160408183019282815285518094520193019160005b8281106108cc575050505090565b83516001600160a01b0316855293810193928101926001016108be565b6002548110156109205760026000527f405787fa12a823e0f2b7631cc41b3ba8828b3321ca811111fa75cd3aa3bb5ace0190600090565b634e487b7160e01b600052603260045260246000fd5b80548210156109205760005260206000200190600090565b6000546001600160a01b0316330361096257565b606460405162461bcd60e51b815260206004820152602060248201527f4f776e61626c653a2063616c6c6572206973206e6f7420746865206f776e65726044820152fd5b67ffffffffffffffff81116109ba57604052565b634e487b7160e01b600052604160045260246000fd5b90601f8019910116810190811067ffffffffffffffff8211176109ba57604052565b67ffffffffffffffff81116109ba5760051b6020019056fe6080346100d157601f61140638819003918201601f19168301916001600160401b038311848410176100d65780849260409485528339810103126100d157610052602061004b836100ec565b92016100ec565b60008054336001600160a01b0319808316821784556040519590946001600160a01b03949093859391908416907f8be0079c531659141344cd1fd0a4f28419497f9722a3daafe3b4186f6b6457e09080a360018055168360035416176003551690600254161760025560ff19600c5416600c5561130590816101018239f35b600080fd5b634e487b7160e01b600052604160045260246000fd5b51906001600160a01b03821682036100d15756fe6080604052600480361015610043575b361561001a57600080fd5b600a549034820180921161002e5750600a55005b601190634e487b7160e01b6000525260246000fd5b6000803560e01c8063117df08814610d4f57806326aba20014610d315780632a4a401514610d13578063322f094114610cf057806368f5935214610cb4578063715018a614610c5a5780637f7a451014610ac7578063835c19f3146109a95780638da5cb5b1461098257806391862a2114610966578063a25a8bc31461094a578063b7fbf6911461092e578063b8b4f1a01461087a578063d9514791146107c5578063e5bf1f3c146105db578063f2fde38b146105055763fc319de91461010a575061000f565b346105025760c036600319011261050257602435823567ffffffffffffffff6044358181116104fe576101409036908701611089565b6064358281116104fa576101579036908801611089565b9560a435936101646110d5565b858110156104c6576064851161048a578155846005558151838111610477578061018f600654610e87565b93601f9485811161040b575b5060209085831160011461038857899261037d575b50508160011b916000199060031b1c1916176006555b865192831161036a57506101db600754610e87565b81811161030a575b50602090821160011461026657819085967f84854f87d7f6e39f49ebdded03217f7c4af2965462b09b18c5176bc692bc40fa969261025b575b50508160011b916000199060031b1c1916176007555b608435600855600955600254604080516001600160a01b0390921682526020820192909252a180f35b01519050388061021c565b600785527fa66cc928b5edb82af9bd49922954155ab7b0942694bea4ce44661d9a8736c68895601f198316865b8181106102f25750917f84854f87d7f6e39f49ebdded03217f7c4af2965462b09b18c5176bc692bc40fa9697918460019594106102d9575b505050811b01600755610232565b015160001960f88460031b161c191690553880806102cb565b83830151895560019098019760209384019301610293565b600786527fa66cc928b5edb82af9bd49922954155ab7b0942694bea4ce44661d9a8736c6888280850160051c82019260208610610361575b0160051c01905b81811061035657506101e3565b868155600101610349565b92508192610342565b634e487b7160e01b865260419052602485fd5b0151905038806101b0565b60068a527ff652222313e28459528d920b65115c16c04f3efc82aaedc97be59f3f377c0d3f9250601f1984168a5b8181106103f357509084600195949392106103da575b505050811b016006556101c6565b015160001960f88460031b161c191690553880806103cc565b929360206001819287860151815501950193016103b6565b909150600689527ff652222313e28459528d920b65115c16c04f3efc82aaedc97be59f3f377c0d3f8580850160051c8201926020861061046e575b9085949392910160051c01905b818110610460575061019b565b8a8155849350600101610453565b92508192610446565b634e487b7160e01b875260418252602487fd5b60405162461bcd60e51b81526020818401526015602482015274496e76616c696420726576656e756520736861726560581b6044820152606490fd5b60405162461bcd60e51b8152602081840152600d60248201526c496e76616c69642074696d657360981b6044820152606490fd5b8580fd5b8480fd5b80fd5b5090346105d75760203660031901126105d7576001600160a01b03813581811692908390036105d3576105366110d5565b82156105805750600054826bffffffffffffffffffffffff60a01b821617600055167f8be0079c531659141344cd1fd0a4f28419497f9722a3daafe3b4186f6b6457e0600080a380f35b60849060206040519162461bcd60e51b8352820152602660248201527f4f776e61626c653a206e6577206f776e657220697320746865207a65726f206160448201526564647265737360d01b6064820152fd5b8380fd5b5080fd5b5090346105d757816003193601126105d7576002546001600160a01b039081169061060733831461112d565b61061560ff600c5416611170565b60ff600b5460081c1661078d5760055442101561075057610634611205565b918493600a5491821580156106bd575b877f7f0e25a9455998ceb0850579b4ed1e2008cd9d1ac71713154c9c0a2a3d8fe435606089898961010061ff0019600b541617600b5560025416917f70803f74489427aa7a7c6913d35f266c3dea49b8b0eb28315689d1807322a5b16020604051858152a160405192835260208301526040820152a180f35b9091929550848602908682048614171561073d57906106e1606488930480976111b2565b90811561064457828092819282600a555af16106fb6111d5565b501561070957848180610644565b60649060206040519162461bcd60e51b8352820152600d60248201526c1499599d5b990819985a5b1959609a1b6044820152fd5b634e487b7160e01b875260118352602487fd5b60405162461bcd60e51b81526020818501526016602482015275115d995b9d08185b1c9958591e481bd8d8dd5c9c995960521b6044820152606490fd5b60405162461bcd60e51b81526020818501526011602482015270105b1c9958591e4818d85b98d95b1b1959607a1b6044820152606490fd5b50346105025780600319360112610502575060018060a01b0380600254169060035416915460ff600554916107f8610f16565b92610801610fd4565b9361084e6008549561084060095493600a5495600b54976040519c8d9c8d5260208d015260408c015260608b01526101608060808c01528a0190610e47565b9088820360a08a0152610e47565b9460c087015260e0860152610100850152818116151561012085015260081c1615156101408301520390f35b5090346105d757816003193601126105d7576002546001600160a01b0316906108a433831461112d565b600c549060ff82166108ea575060ff1916600117600c556040519081527f87749e5a8d50e7a3313d5056b9cc2bd91d8d91b4985106ee8ce6b865e2edfd0890602090a180f35b60649060206040519162461bcd60e51b8352820152601760248201527f436f6e747261637420616c7265616479207369676e65640000000000000000006044820152fd5b5034610502578060031936011261050257602060405160648152f35b50346105025780600319360112610502576020604051600a8152f35b5034610502578060031936011261050257602060405160328152f35b5034610502578060031936011261050257546040516001600160a01b039091168152602090f35b50346105025780600319360112610502576002546001600160a01b03906109d3908216331461112d565b6109e160ff600c5416611170565b6109e9611279565b6109fb60ff600b5460081c1615611235565b806003541690600854918160025416813b156104fe578491604483926040519485938492630b63fe9560e01b84528b8401528860248401525af18015610abc57610a8a575b5060025460408051929091166001600160a01b0316825260208201929092527f6ef95f06320e7a25a04a175ca677b7052bdd97131872c2192525a629f51be7709190a16001805580f35b67ffffffffffffffff8194929411610aa9576040529192508238610a40565b634e487b7160e01b825260418552602482fd5b6040513d86823e3d90fd5b5034610502578060031936011261050257610140604051610ae781610ec1565b82815282602082015282604082015282606082015260606080820152606060a08201528260c08201528260e08201528261010082015282610120820152015260405190610b3382610ec1565b6002546001600160a01b0390811683526003541660208301525460408201526005546060820152610b62610f16565b6080820152610b6f610fd4565b60a082015260085460c082015260095460e0820152600a5461010082015260ff600b54818116151561012084015260081c16151561014082015260405180916020825260018060a01b03815116602083015260018060a01b03602082015116604083015260408101516060830152606081015160808301526080810151610140610c20610c0a610160938460a0880152610180870190610e47565b60a0850151868203601f190160c0880152610e47565b9260c081015160e086015260e081015161010086015261010081015161012086015261012081015115158286015201511515908301520390f35b5034610502578060031936011261050257610c736110d5565b80546001600160a01b03198116825581906001600160a01b03167f8be0079c531659141344cd1fd0a4f28419497f9722a3daafe3b4186f6b6457e08280a380f35b503461050257806003193601126105025760a060405162278d00815262093a806020820152600a60408201526032606082015260646080820152f35b5034610502578060031936011261050257602060ff600c54166040519015158152f35b5034610502578060031936011261050257602060405162093a808152f35b5034610502578060031936011261050257602060405162278d008152f35b5090346105d757816003193601126105d7576002546001600160a01b0390610d7a908216331461112d565b610d8860ff600c5416611170565b610d90611279565b610da260ff600b5460081c1615611235565b600a54908115610e0a5783808093819382600a55600254165af1610dc46111d5565b5015610dd257506001805580f35b60649060206040519162461bcd60e51b8352820152601160248201527015da5d1a191c985dd85b0819985a5b1959607a1b6044820152fd5b60405162461bcd60e51b815260208185015260166024820152754e6f206465706f73697420746f20776974686472617760501b6044820152606490fd5b919082519283825260005b848110610e73575050826000602080949584010152601f8019910116010190565b602081830181015184830182015201610e52565b90600182811c92168015610eb7575b6020831014610ea157565b634e487b7160e01b600052602260045260246000fd5b91607f1691610e96565b610160810190811067ffffffffffffffff821117610ede57604052565b634e487b7160e01b600052604160045260246000fd5b90601f8019910116810190811067ffffffffffffffff821117610ede57604052565b6040519060008260065491610f2a83610e87565b80835292600190818116908115610fb25750600114610f53575b50610f5192500383610ef4565b565b6006600090815291507ff652222313e28459528d920b65115c16c04f3efc82aaedc97be59f3f377c0d3f5b848310610f975750610f51935050810160200138610f44565b81935090816020925483858a01015201910190918592610f7e565b905060209250610f5194915060ff191682840152151560051b82010138610f44565b6040519060008260075491610fe883610e87565b80835292600190818116908115610fb2575060011461100e5750610f5192500383610ef4565b6007600090815291507fa66cc928b5edb82af9bd49922954155ab7b0942694bea4ce44661d9a8736c6885b8483106110525750610f51935050810160200138610f44565b81935090816020925483858a01015201910190918592611039565b67ffffffffffffffff8111610ede57601f01601f191660200190565b81601f820112156110d0578035906110a08261106d565b926110ae6040519485610ef4565b828452602083830101116110d057816000926020809301838601378301015290565b600080fd5b6000546001600160a01b031633036110e957565b606460405162461bcd60e51b815260206004820152602060248201527f4f776e61626c653a2063616c6c6572206973206e6f7420746865206f776e65726044820152fd5b1561113457565b60405162461bcd60e51b815260206004820152601460248201527313db9b1e48185c9d1a5cdd0818d85b8818d85b1b60621b6044820152606490fd5b1561117757565b60405162461bcd60e51b815260206004820152601360248201527210dbdb9d1c9858dd081b9bdd081cda59db9959606a1b6044820152606490fd5b919082039182116111bf57565b634e487b7160e01b600052601160045260246000fd5b3d15611200573d906111e68261106d565b916111f46040519384610ef4565b82523d6000602084013e565b606090565b61121260055442906111b2565b62278d0081106112225750600a90565b62093a801161123057603290565b606490565b1561123c57565b60405162461bcd60e51b815260206004820152601560248201527414195c999bdc9b585b98d94818d85b98d95b1b1959605a1b6044820152606490fd5b60026001541461128a576002600155565b60405162461bcd60e51b815260206004820152601f60248201527f5265656e7472616e637947756172643a207265656e7472616e742063616c6c006044820152606490fdfea26469706673582212207761dd632b621ed066ee44fec55f8c7d20168d02f613907138a6026c1a307fb164736f6c63430008130033a2646970667358221220c977d273bfd28186a8da2a7fa4c9dbdf4e2c3aaa4df315464d813b204a5b32ef64736f6c63430008130033",
  "immutableReferences": {},
  "source": "// SPDX-License-Identifier: MIT\npragma solidity ^0.8.19;\n\nimport \"@openzeppelin/contracts/access/Ownable.sol\";\nimport \"../ArtistContract.sol\";\nimport \"./EventFactory.sol\";\nimport \"../ParentEventContract.sol\";\n\n/// @title Artist Factory Contract\n/// @author XAO Protocol Team\n/// @notice This contract manages the creation and tracking of artist contracts\n/// @dev Implements factory pattern for creating new artist contracts with proper linkage to events\ncontract ArtistFactory is Ownable {\n    /// @notice Reference to the event factory contract\n    EventFactory public eventFactory;\n\n    /// @notice Array to track all created artist contracts\n    address[] public artists;\n\n    /// @notice Mapping to check if an address is a created artist contract\n    mapping(address => bool) public isArtist;\n\n    /// @notice Mapping to track artist contracts per event\n    mapping(address => address[]) public eventToArtists;\n\n    /// @notice Emitted when a new artist contract is created\n    /// @param artistContract Address of the new artist contract\n    /// @param artist Address of the artist\n    /// @param eventContract Address of the associated event contract\n    event ArtistCreated(address indexed artistContract, address indexed artist, address indexed eventContract);\n    \n    /// @notice Emitted when the event factory address is set\n    /// @param eventFactory Address of the event factory contract\n    event EventFactorySet(address eventFactory);\n\n    /// @notice Sets the event factory contract address\n    /// @dev Can only be called by the contract owner\n    /// @param _eventFactory Address of the event factory contract\n    function setEventFactory(address _eventFactory) external onlyOwner {\n        require(_eventFactory != address(0), \"Invalid event factory\");\n        eventFactory = EventFactory(_eventFactory);\n        emit EventFactorySet(_eventFactory);\n    }\n\n    /// @notice Creates a new artist contract for an event\n    /// @dev Links the artist contract with the event and transfers ownership\n    /// @param _eventContract Address of the event contract\n    /// @param _artist Address of the artist\n    /// @return Address of the newly created artist contract\n    function createArtistContract(address _eventContract, address _artist) \n        external \n        returns (address) \n    {\n        require(address(eventFactory) != address(0), \"Event factory not set\");\n        require(eventFactory.isEvent(_eventContract), \"Invalid event contract\");\n\n        // Deploy new artist contract\n        ArtistContract newArtist = new ArtistContract(_eventContract, _artist);\n\n        // Record the new artist contract\n        artists.push(address(newArtist));\n        isArtist[address(newArtist)] = true;\n        eventToArtists[_eventContract].push(address(newArtist));\n\n        // Transfer ownership of artist contract to the event contract\n        newArtist.transferOwnership(_eventContract);\n\n        // Link artist contract with event\n        ParentEventContract(_eventContract).linkArtistContract(address(newArtist));\n\n        emit ArtistCreated(address(newArtist), _artist, _eventContract);\n\n        return address(newArtist);\n    }\n\n    /// @notice Gets the total number of artist contracts created\n    /// @return Total count of artist contracts\n    function getArtistCount() external view returns (uint256) {\n        return artists.length;\n    }\n\n    /// @notice Gets all artist contracts associated with an event\n    /// @param _eventContract Address of the event contract\n    /// @return Array of artist contract addresses\n    function getEventArtists(address _eventContract) \n        external \n        view \n        returns (address[] memory) \n    {\n        return eventToArtists[_eventContract];\n    }\n\n    /// @notice Gets a range of artist contracts\n    /// @param start Starting index in the artists array\n    /// @param end Ending index in the artists array\n    /// @return Array of artist contract addresses within the specified range\n    function getArtists(uint256 start, uint256 end) \n        external \n        view \n        returns (address[] memory) \n    {\n        require(start <= end && end < artists.length, \"Invalid range\");\n\n        uint256 length = end - start + 1;\n        address[] memory result = new address[](length);\n\n        for (uint256 i = 0; i < length; i++) {\n            result[i] = artists[start + i];\n        }\n\n        return result;\n    }\n}\n",
  "sourcePath": "/home/runner/workspace/contracts/factories/ArtistFactory.sol",
  "compiler": {
    "name": "solc",
    "version": "0.8.19+commit.7dd6d404.Emscripten.clang"
  },
  "schemaVersion": "3.4.16",
  "updatedAt": "2025-03-01T00:09:26.858Z",
  "networkType": "ethereum",
  "devdoc": {
    "author": "XAO Protocol Team",
    "details": "Implements factory pattern for creating new artist contracts with proper linkage to events",
    "events": {
      "ArtistCreated(address,address,address)": {
        "params": {
          "artist": "Address of the artist",
          "artistContract": "Address of the new artist contract",
          "eventContract": "Address of the associated event contract"
        }
      },
      "EventFactorySet(address)": {
        "params": {
          "eventFactory": "Address of the event factory contract"
        }
      }
    },
    "kind": "dev",
    "methods": {
      "createArtistContract(address,address)": {
        "details": "Links the artist contract with the event and transfers ownership",
        "params": {
          "_artist": "Address of the artist",
          "_eventContract": "Address of the event contract"
        },
        "returns": {
          "_0": "Address of the newly created artist contract"
        }
      },
      "getArtistCount()": {
        "returns": {
          "_0": "Total count of artist contracts"
        }
      },
      "getArtists(uint256,uint256)": {
        "params": {
          "end": "Ending index in the artists array",
          "start": "Starting index in the artists array"
        },
        "returns": {
          "_0": "Array of artist contract addresses within the specified range"
        }
      },
      "getEventArtists(address)": {
        "params": {
          "_eventContract": "Address of the event contract"
        },
        "returns": {
          "_0": "Array of artist contract addresses"
        }
      },
      "owner()": {
        "details": "Returns the address of the current owner."
      },
      "renounceOwnership()": {
        "details": "Leaves the contract without owner. It will not be possible to call `onlyOwner` functions. Can only be called by the current owner. NOTE: Renouncing ownership will leave the contract without an owner, thereby disabling any functionality that is only available to the owner."
      },
      "setEventFactory(address)": {
        "details": "Can only be called by the contract owner",
        "params": {
          "_eventFactory": "Address of the event factory contract"
        }
      },
      "transferOwnership(address)": {
        "details": "Transfers ownership of the contract to a new account (`newOwner`). Can only be called by the current owner."
      }
    },
    "title": "Artist Factory Contract",
    "version": 1
  },
  "userdoc": {
    "events": {
      "ArtistCreated(address,address,address)": {
        "notice": "Emitted when a new artist contract is created"
      },
      "EventFactorySet(address)": {
        "notice": "Emitted when the event factory address is set"
      }
    },
    "kind": "user",
    "methods": {
      "artists(uint256)": {
        "notice": "Array to track all created artist contracts"
      },
      "createArtistContract(address,address)": {
        "notice": "Creates a new artist contract for an event"
      },
      "eventFactory()": {
        "notice": "Reference to the event factory contract"
      },
      "eventToArtists(address,uint256)": {
        "notice": "Mapping to track artist contracts per event"
      },
      "getArtistCount()": {
        "notice": "Gets the total number of artist contracts created"
      },
      "getArtists(uint256,uint256)": {
        "notice": "Gets a range of artist contracts"
      },
      "getEventArtists(address)": {
        "notice": "Gets all artist contracts associated with an event"
      },
      "isArtist(address)": {
        "notice": "Mapping to check if an address is a created artist contract"
      },
      "setEventFactory(address)": {
        "notice": "Sets the event factory contract address"
      }
    },
    "notice": "This contract manages the creation and tracking of artist contracts",
    "version": 1
  }
}