{
  "contractName": "EventFactory",
  "abi": [
    {
      "inputs": [
        {
          "internalType": "uint256",
          "name": "_eventCreationFee",
          "type": "uint256"
        },
        {
          "internalType": "address",
          "name": "_artistFactory",
          "type": "address"
        }
      ],
      "stateMutability": "nonpayable",
      "type": "constructor"
    },
    {
      "anonymous": false,
      "inputs": [
        {
          "indexed": true,
          "internalType": "address",
          "name": "eventAddress",
          "type": "address"
        },
        {
          "indexed": true,
          "internalType": "address",
          "name": "creator",
          "type": "address"
        }
      ],
      "name": "EventCreated",
      "type": "event"
    },
    {
      "anonymous": false,
      "inputs": [
        {
          "indexed": false,
          "internalType": "uint256",
          "name": "newFee",
          "type": "uint256"
        }
      ],
      "name": "FeeUpdated",
      "type": "event"
    },
    {
      "anonymous": false,
      "inputs": [
        {
          "indexed": false,
          "internalType": "uint256",
          "name": "amount",
          "type": "uint256"
        }
      ],
      "name": "FeesWithdrawn",
      "type": "event"
    },
    {
      "anonymous": false,
      "inputs": [
        {
          "indexed": true,
          "internalType": "address",
          "name": "previousOwner",
          "type": "address"
        },
        {
          "indexed": true,
          "internalType": "address",
          "name": "newOwner",
          "type": "address"
        }
      ],
      "name": "OwnershipTransferred",
      "type": "event"
    },
    {
      "inputs": [],
      "name": "artistFactory",
      "outputs": [
        {
          "internalType": "address",
          "name": "",
          "type": "address"
        }
      ],
      "stateMutability": "view",
      "type": "function",
      "constant": true
    },
    {
      "inputs": [],
      "name": "eventCreationFee",
      "outputs": [
        {
          "internalType": "uint256",
          "name": "",
          "type": "uint256"
        }
      ],
      "stateMutability": "view",
      "type": "function",
      "constant": true
    },
    {
      "inputs": [
        {
          "internalType": "uint256",
          "name": "",
          "type": "uint256"
        }
      ],
      "name": "events",
      "outputs": [
        {
          "internalType": "address",
          "name": "",
          "type": "address"
        }
      ],
      "stateMutability": "view",
      "type": "function",
      "constant": true
    },
    {
      "inputs": [
        {
          "internalType": "address",
          "name": "",
          "type": "address"
        }
      ],
      "name": "isEvent",
      "outputs": [
        {
          "internalType": "bool",
          "name": "",
          "type": "bool"
        }
      ],
      "stateMutability": "view",
      "type": "function",
      "constant": true
    },
    {
      "inputs": [],
      "name": "owner",
      "outputs": [
        {
          "internalType": "address",
          "name": "",
          "type": "address"
        }
      ],
      "stateMutability": "view",
      "type": "function",
      "constant": true
    },
    {
      "inputs": [],
      "name": "renounceOwnership",
      "outputs": [],
      "stateMutability": "nonpayable",
      "type": "function"
    },
    {
      "inputs": [
        {
          "internalType": "address",
          "name": "newOwner",
          "type": "address"
        }
      ],
      "name": "transferOwnership",
      "outputs": [],
      "stateMutability": "nonpayable",
      "type": "function"
    },
    {
      "inputs": [],
      "name": "createEvent",
      "outputs": [
        {
          "internalType": "address",
          "name": "",
          "type": "address"
        }
      ],
      "stateMutability": "payable",
      "type": "function",
      "payable": true
    },
    {
      "inputs": [
        {
          "internalType": "uint256",
          "name": "_newFee",
          "type": "uint256"
        }
      ],
      "name": "updateEventCreationFee",
      "outputs": [],
      "stateMutability": "nonpayable",
      "type": "function"
    },
    {
      "inputs": [],
      "name": "withdrawFees",
      "outputs": [],
      "stateMutability": "nonpayable",
      "type": "function"
    },
    {
      "inputs": [],
      "name": "getEventCount",
      "outputs": [
        {
          "internalType": "uint256",
          "name": "",
          "type": "uint256"
        }
      ],
      "stateMutability": "view",
      "type": "function",
      "constant": true
    },
    {
      "inputs": [
        {
          "internalType": "uint256",
          "name": "start",
          "type": "uint256"
        },
        {
          "internalType": "uint256",
          "name": "end",
          "type": "uint256"
        }
      ],
      "name": "getEvents",
      "outputs": [
        {
          "internalType": "address[]",
          "name": "",
          "type": "address[]"
        }
      ],
      "stateMutability": "view",
      "type": "function",
      "constant": true
    }
  ],
  "bytecode": "0x60a03461010357601f613eba38819003918201601f19168301916001600160401b03831184841017610108578084926040948552833981010312610103578051602090910151906001600160a01b03808316808403610103576000543360018060a01b0319821617600055604051923391167f8be0079c531659141344cd1fd0a4f28419497f9722a3daafe3b4186f6b6457e0600080a3156100c15750600155608052604051613d9b908161011f823960805181818161020b015261027c0152f35b62461bcd60e51b815260206004820152601660248201527f496e76616c69642061727469737420666163746f7279000000000000000000006044820152606490fd5b600080fd5b634e487b7160e01b600052604160045260246000fdfe6040608081526004803610156200001557600080fd5b600091823560e01c80630b79143014620007f657806314a7eadf14620007a45780631c71682c14620005e1578063476343ee14620004b0578063715018a6146200044f5780638da5cb5b14620004255780638ff621291462000404578063b33eb0a0146200023a578063cca8ebd314620001f4578063d9e48f5c14620001cf578063e5face61146200018d5763f2fde38b14620000b157600080fd5b346200018957602036600319011262000189576001600160a01b038235818116939192908490036200018557620000e76200088a565b831562000133575050600054826bffffffffffffffffffffffff60a01b821617600055167f8be0079c531659141344cd1fd0a4f28419497f9722a3daafe3b4186f6b6457e0600080a380f35b906020608492519162461bcd60e51b8352820152602660248201527f4f776e61626c653a206e6577206f776e657220697320746865207a65726f206160448201526564647265737360d01b6064820152fd5b8480fd5b8280fd5b509034620001895760203660031901126200018957356001600160a01b038116908190036200018957818360ff92602095526003855220541690519015158152f35b838234620001f05781600319360112620001f0576020906002549051908152f35b5080fd5b838234620001f05781600319360112620001f057517f00000000000000000000000000000000000000000000000000000000000000006001600160a01b03168152602090f35b50829081600319360112620001f0576001543410620003cf57805190613430918281019067ffffffffffffffff9381831085841117620003bc576200093682397f00000000000000000000000000000000000000000000000000000000000000006001600160a01b039081168352918190036020019085f08015620003b257811692833b156200018557825163f2fde38b60e01b8152338782015290858260248183895af18015620003a85762000380575b5050600254680100000000000000008110156200036d57602095508060016200031992016002556200083c565b819291549060031b9185831b921b191617905581835260038452808320600160ff198254161790555191817feccebe7b9eb846e30e8b21dfb66cad3313d87176fcd3b0a708737943afdaf820339280a38152f35b634e487b7160e01b855260418652602485fd5b819592951162000395578252928580620002ec565b634e487b7160e01b825260418652602482fd5b84513d88823e3d90fd5b82513d86823e3d90fd5b634e487b7160e01b865260418752602486fd5b5162461bcd60e51b8152602081840152601060248201526f496e73756666696369656e742066656560801b6044820152606490fd5b838234620001f05781600319360112620001f0576020906001549051908152f35b838234620001f05781600319360112620001f057905490516001600160a01b039091168152602090f35b8334620004ad5780600319360112620004ad576200046c6200088a565b80546001600160a01b03198116825581906001600160a01b03167f8be0079c531659141344cd1fd0a4f28419497f9722a3daafe3b4186f6b6457e08280a380f35b80fd5b50346200018957826003193601126200018957620004cd6200088a565b47918215620005a957838080808660018060a01b038254165af13d15620005a3573d67ffffffffffffffff8111620005905783519062000518601f8201601f191660200183620008e3565b81528560203d92013e5b156200055657507f9800e6f57aeb4360eaa72295a820a4293e1e66fbfcabcd8874ae141304a76deb9160209151908152a180f35b6020606492519162461bcd60e51b83528201526015602482015274119959481dda5d1a191c985dd85b0819985a5b1959605a1b6044820152fd5b634e487b7160e01b865260418352602486fd5b62000522565b6020606492519162461bcd60e51b835282015260136024820152724e6f206665657320746f20776974686472617760681b6044820152fd5b50903462000189578160031936011262000189578035602490813594858211158062000798575b15620007665781860395861162000754576001958681018091116200074257928692846200063788966200091c565b926200064687519485620008e3565b81845262000654826200091c565b9760209384860199601f1901368b37865b848110620006b05750505050508451948186019282875251809352850195925b828110620006935785870386f35b83516001600160a01b031687529581019592810192840162000685565b80829b999b98969798018083116200073057620006cd906200083c565b905489518310156200071e5760039190911b1c6001600160a01b0316600582901b890188015260001981146200070c578a019997999695949662000665565b634e487b7160e01b8652601183528386fd5b634e487b7160e01b8852603285528588fd5b634e487b7160e01b8752601184528487fd5b634e487b7160e01b8252601185528382fd5b634e487b7160e01b8152601184529050fd5b845162461bcd60e51b8152602081860152600d818501526c496e76616c69642072616e676560981b6044820152606490fd5b50600254861062000608565b5090346200018957602036600319011262000189577f8c4d35e54a3f2ef1134138fd8ea3daee6a3c89e10d2665996babdf70261e2c76916020913590620007ea6200088a565b8160015551908152a180f35b5090346200018957602036600319011262000189573591600254831015620004ad5750620008266020926200083c565b905491519160018060a01b039160031b1c168152f35b600254811015620008745760026000527f405787fa12a823e0f2b7631cc41b3ba8828b3321ca811111fa75cd3aa3bb5ace0190600090565b634e487b7160e01b600052603260045260246000fd5b6000546001600160a01b031633036200089f57565b606460405162461bcd60e51b815260206004820152602060248201527f4f776e61626c653a2063616c6c6572206973206e6f7420746865206f776e65726044820152fd5b90601f8019910116810190811067ffffffffffffffff8211176200090657604052565b634e487b7160e01b600052604160045260246000fd5b67ffffffffffffffff8111620009065760051b6020019056fe60a0346200044f576001600160401b03601f19601f6200343038819003828101841686018581118782101762000454578692829160405283396020958691810103126200044f5751906001600160a01b0382168083036200044f57620000646200046a565b94600c86526b115d995b9d08151a58dad95d60a21b87870152620000876200046a565b92600493848152631510d2d560e21b898201528751968388116200043a5760009788549960019a8b81811c911680156200042f575b8d8210146200041c57908c8287859411620003c6575b50508c908d8784116001146200035857508b926200034c575b5050600019600383901b1c1916908a1b1788555b8151938411620003395788548981811c911680156200032e575b8b8210146200031b579081848695949311620002c4575b508a928411600114620002635750879262000257575b5050600019600383901b1c191690861b1785555b62000165336200048a565b846007551562000213577fef1db5e9aa6982a9d5e46d9461d6114866bb057305d4b3555b368ef13525bec660e0868686866080528160ff196021541617602155620001b0336200048a565b60405192818452830152604082015233606082015260a06080820152601460a08201527f436f6e747261637420696e697469616c697a656400000000000000000000000060c0820152a1604051612f5c9081620004d48239608051816111520152f35b60405162461bcd60e51b8152908101859052601760248201527f496e76616c696420666163746f727920616464726573730000000000000000006044820152606490fd5b01519050388062000146565b8989528a89208a959093929116895b8c828210620002ad575050841162000293575b505050811b0185556200015a565b015160001960f88460031b161c1916905538808062000285565b8385015186558c9790950194938401930162000272565b90919293508989528a89208480870160051c8201928d881062000311575b9187968d92969594930160051c01915b8281106200030257505062000130565b8b81558796508c9101620002f2565b92508192620002e2565b634e487b7160e01b895260228752602489fd5b90607f169062000119565b634e487b7160e01b885260418652602488fd5b015190503880620000eb565b908c9291868f96169084805280852094905b828210620003a457505084116200038a575b505050811b018855620000ff565b015160001960f88460031b161c191690553880806200037c565b8496978193949596829397870151815501960194018f9695949392916200036a565b909192508b805286828d209181860160051c830193861062000412575b918e91869594930160051c01915b8281106200040357508e9150620000d2565b8d81558594508e9101620003f1565b92508192620003e3565b634e487b7160e01b8b526022895260248bfd5b90607f1690620000bc565b604186634e487b7160e01b6000525260246000fd5b600080fd5b634e487b7160e01b600052604160045260246000fd5b60408051919082016001600160401b038111838210176200045457604052565b600680546001600160a01b039283166001600160a01b0319821681179092559091167f8be0079c531659141344cd1fd0a4f28419497f9722a3daafe3b4186f6b6457e0600080a356fe608080604052600436101561001357600080fd5b60003560e01c90816301ffc9a7146124635750806306fdde03146123c0578063081812fc146123a257806308e9bd2614612036578063095ea7b314611ebc5780630b63fe9514611d5757806323b872dd14611d3357806326aba20014611d1557806326ede293146114835780632a4a4015146114655780633d8413f81461118157806342842e0e146114325780634d31c57a1461140f57806357da53ac146112e45780636352211e146112b457806370a082311461121d578063715018a6146111c057806378cfc3ea146111815780637c44fb9c1461113c5780638b4d019e146111035780638da5cb5b146110da5780638fb14b4f14610fd857806391862a2114610fbc57806395d89b4114610edd578063a22cb46514610e0b578063a25a8bc314610def578063b03fb47914610a5a578063b7fbf69114610a3e578063b88d4fde146109b6578063c59d563314610931578063c87b56dd146108c0578063ca7607f11461078b578063cc54bcf214610768578063ccfb9dbe146105f8578063e985e9c5146105a2578063eabcb0be1461057c578063f2fde38b146104b85763fb6c9537146101c157600080fd5b346104b35760003660031901126104b3576101da61261e565b600b5460e0601254916021549260018060a01b03600654169060405194838652602095828782015260ff82161515604082015283606082015260a06080820152601060a08201526f5072652d63616e63656c20636865636b60801b60c0820152600080516020612ee7833981519152958691a1601c549060ff821661047a573384036104205784156103dd578442101561038c57821561033157604060e09697927ff2b8058f2eb33b87760eeeb3c3dde3ea780b35c4cc94cc5a73e6dd1efcdaa5cc9260016102a7612bd6565b9160646102b4848a612bc3565b049360ff198092166021551617601c558251917fc423524f667a9459893f10159c8a95981a43fb77edd414f6325d8439604ad418600080a1825284820152a160405193845283015260006040830152606082015260a06080820152600f60a08201526e115d995b9d0818d85b98d95b1b1959608a1b60c0820152a1005b60405162461bcd60e51b815260048101889052602d60248201527f4e6f20726576656e756520746f2063616c63756c6174652070656e616c74792060448201526c5b63616e63656c4576656e745d60981b6064820152608490fd5b60405162461bcd60e51b8152600481018890526024808201527f4576656e7420616c7265616479206f63637572726564205b63616e63656c4576604482015263656e745d60e01b6064820152608490fd5b6064876040519062461bcd60e51b825280600483015260248201527f4576656e742064617465206e6f7420736574205b63616e63656c4576656e745d6044820152fd5b60405162461bcd60e51b815260048101889052602c60248201527f4f6e6c7920636f6e7472616374206f776e65722063616e2063616e63656c205b60448201526b6f776e657220636865636b5d60a01b6064820152608490fd5b60405162461bcd60e51b8152600481018890526011602482015270105b1c9958591e4818d85b98d95b1b1959607a1b6044820152606490fd5b600080fd5b346104b35760203660031901126104b3576104d161250e565b6104d961261e565b6001600160a01b0390811690811561052857600654826001600160601b0360a01b821617600655167f8be0079c531659141344cd1fd0a4f28419497f9722a3daafe3b4186f6b6457e0600080a3005b60405162461bcd60e51b815260206004820152602660248201527f4f776e61626c653a206e6577206f776e657220697320746865207a65726f206160448201526564647265737360d01b6064820152608490fd5b60003660031901126104b35761059061261e565b61059d6013543490612dc2565b601355005b346104b35760403660031901126104b3576105bb61250e565b6105c3612524565b9060018060a01b03809116600052600560205260406000209116600052602052602060ff604060002054166040519015158152f35b346104b35760c03660031901126104b35760a43560243560043560643560443561062061261e565b8284118061075f575b1561072457603282116106e95760c885116106ab577f1d70f1d6a6acdab45f714678efde4892988a3a98043b521fb00199f81c6729f9946106a692846016558560175582601855601955608435601a55601b55600160ff196011541617601155604051938493846040919493926060820195825260208201520152565b0390a1005b60405162461bcd60e51b81526020600482015260166024820152754d6178206d756c7469706c696572206973203230302560501b6044820152606490fd5b60405162461bcd60e51b81526020600482015260136024820152724d617820646973636f756e742069732035302560681b6044820152606490fd5b60405162461bcd60e51b8152602060048201526013602482015272496e76616c69642070726963652072616e676560681b6044820152606490fd5b50808311610629565b346104b35760003660031901126104b357602060ff602154166040519015158152f35b346104b35760603660031901126104b357600435602435604435918215158093036104b3576107b861261e565b801561088357811561084757600f5560105560ff801960115416911617601155600080516020612ee783398151915260e0600b5460125460ff6021541660018060a01b036006541691604051938452602084015215156040830152606082015260a06080820152601560a082015274151a58dad95d1a5b99c819195d185a5b1cc81cd95d605a1b60c0820152a1005b60405162461bcd60e51b8152602060048201526014602482015273496e76616c6964207469636b657420707269636560601b6044820152606490fd5b60405162461bcd60e51b8152602060048201526015602482015274496e76616c6964207469636b657420737570706c7960581b6044820152606490fd5b346104b35760203660031901126104b3576004356000908152600260205260409020546108f7906001600160a01b03161515612676565b60006040516109058161256f565b5261092d6040516109158161256f565b600081526040519182916020835260208301906124ce565b0390f35b346104b35760203660031901126104b3576004356000818152600260205260409020546001600160a01b03161561097a5760005260226020526020604060002054604051908152f35b60405162461bcd60e51b8152602060048201526014602482015273151bdad95b88191bd95cc81b9bdd08195e1a5cdd60621b6044820152606490fd5b346104b35760803660031901126104b3576109cf61250e565b6109d7612524565b906064359060443567ffffffffffffffff83116104b357366023840112156104b357610a3c93610a14610a379436906024816004013591016125c9565b92610a27610a228433612836565b61275d565b610a328383836128fe565b612b48565b612812565b005b346104b35760003660031901126104b3576020604051601e8152f35b346104b35760003660031901126104b357600b54600c5490600d5490600f5490610a82612dcf565b60ff601154169060125492604051956000976008549888610aa28b6126e5565b9182825260019b8c81169081600014610dd05750600114610d70575b610aca9250038961258b565b6040519760008960095491610ade836126e5565b808352928d8116908115610d515750600114610d03575b610b019250038a61258b565b604051908a826000600a54610b15816126e5565b808452938116908115610ce45750600114610c95575b610b379250038361258b565b6040519a8b600091600e54610b4b816126e5565b8093528181169081600014610c515750600114610bf1575b5050610bd3959492610ba88d9593610b84610b9a9e9f610bb695038861258b565b6040519e8f9e8f926101608085528401906124ce565b9160208184039101526124ce565b8c810360408e0152906124ce565b9360608b015260808a015260a089015287820360c08901526124ce565b9360e086015261010085015215156101208401526101408301520390f35b600e600090815292507fbb7b4a454dc3493923482f07822329ed19e8244eff582cc204f8554c3620c3fd5b828410610c34575050508b0160200182610ba8610b63565b818f91602092838783989697985492010152019101929190610c1c565b610b9a9e9f610bb69550610ba8935080989692506020610bd39b9a9895610b849360ff191682840152151560051b8201019550505093959d9c508194969750610b63565b5090600a600052600080516020612ec7833981519152908d6000925b828410610cca57505050906020610b3792820101610b2b565b6020929450805483858901015201910190918d8593610cb1565b60209250610b3794915060ff191682840152151560051b820101610b2b565b50906009600052600080516020612f07833981519152908c6000925b828410610d3857505050906020610b0192820101610af5565b60209294838583549201015201910190918c8c93610d1f565b60209250610b0194915060ff191682840152151560051b820101610af5565b509060086000527ff3f7a9fe364faab93b216da50a3214154f22a0a2b415b23a84c8169e8b636ee3908b6000925b828410610db757505050906020610aca92820101610abe565b60209294838583549201015201910190918b8b93610d9e565b60209250610aca94915060ff191682840152151560051b820101610abe565b346104b35760003660031901126104b357602060405160058152f35b346104b35760403660031901126104b357610e2461250e565b602435908115158092036104b3576001600160a01b031690338214610e9857336000526005602052604060002082600052602052604060002060ff1981541660ff83161790556040519081527f17307eab39ab6107e8899845ad3d59bd9653f200f220920489ca2b5937696c3160203392a3005b60405162461bcd60e51b815260206004820152601960248201527f4552433732313a20617070726f766520746f2063616c6c6572000000000000006044820152606490fd5b346104b35760003660031901126104b35760405160006001805490610f01826126e5565b80855291818116908115610f955750600114610f3c575b61092d84610f288186038261258b565b6040519182916020835260208301906124ce565b600081815292507fb10e2d527612073b26eecdfd717e6a320cf44b4afac2b0732d9fcbe2b7fa0cf65b828410610f7d575050508101602001610f2882610f18565b80546020858701810191909152909301928101610f65565b60ff191660208087019190915292151560051b85019092019250610f289150839050610f18565b346104b35760003660031901126104b3576020604051600f8152f35b346104b3576020806003193601126104b3576001600160a01b03610ffa61250e565b169081156110965781600052601f815260ff6040600020541661105a57817fb65447de4eed122b9c1579b007fe916f72a595ff8f9395d6720dd8e80c3806ca92600052601f82526040600020600160ff19825416179055604051908152a1005b6064906040519062461bcd60e51b825260048201526015602482015274105c9d1a5cdd08185b1c9958591e481b1a5b9ad959605a1b6044820152fd5b6064906040519062461bcd60e51b82526004820152601760248201527f496e76616c69642061727469737420636f6e74726163740000000000000000006044820152fd5b346104b35760003660031901126104b3576006546040516001600160a01b039091168152602090f35b346104b35760003660031901126104b3576060600f54611121612dcf565b60ff6011541690604051928352602083015215156040820152f35b346104b35760003660031901126104b3576040517f00000000000000000000000000000000000000000000000000000000000000006001600160a01b03168152602090f35b346104b35760203660031901126104b3576001600160a01b036111a261250e565b16600052601f602052602060ff604060002054166040519015158152f35b346104b35760003660031901126104b3576111d961261e565b600680546001600160a01b031981169091556000906001600160a01b03167f8be0079c531659141344cd1fd0a4f28419497f9722a3daafe3b4186f6b6457e08280a3005b346104b35760203660031901126104b3576001600160a01b0361123e61250e565b16801561125d5760005260036020526020604060002054604051908152f35b60405162461bcd60e51b815260206004820152602960248201527f4552433732313a2061646472657373207a65726f206973206e6f7420612076616044820152683634b21037bbb732b960b91b6064820152608490fd5b346104b35760203660031901126104b35760206112d26004356126c2565b6040516001600160a01b039091168152f35b346104b35760403660031901126104b35760243560043561130361261e565b80156113d357811561139e5760155460018101808211611388577f8a68dd5ddbfcc5467b08bb78844d64853315ada46e7fcfe61e44f1a011ccc0d2936106a6916015558260005260146020526002604060002085815582600182015501600160ff19825416179055604051938493846040919493926060820195825260208201520152565b634e487b7160e01b600052601160045260246000fd5b60405162461bcd60e51b815260206004820152600d60248201526c496e76616c696420707269636560981b6044820152606490fd5b60405162461bcd60e51b8152602060048201526014602482015273125b9d985b1a59081d1a58dad95d0818dbdd5b9d60621b6044820152606490fd5b346104b35760003660031901126104b357602061142a612dcf565b604051908152f35b346104b357610a3c610a376114463661253a565b90604051926114548461256f565b60008452610a27610a228433612836565b346104b35760003660031901126104b357602060405162093a808152f35b346104b35760e03660031901126104b35760043567ffffffffffffffff81116104b3576114b4903690600401612600565b60243567ffffffffffffffff81116104b3576114d4903690600401612600565b90604490813567ffffffffffffffff81116104b3576114f7903690600401612600565b9160c43567ffffffffffffffff81116104b357611518903690600401612600565b9061152161261e565b825115611cd157845115611c8d57835115611c4957426064351115611c10576064356084351115611bc05760843560a4351115611b725750815167ffffffffffffffff8111611894576115756008546126e5565b601f8111611b0d575b50806020601f8211600114611a8957600091611a7e575b508160011b916000199060031b1c1916176008555b835167ffffffffffffffff8111611894576115c66009546126e5565b601f8111611a11575b50602094601f821160011461199f57948192939495600092611994575b50508160011b916000199060031b1c1916176009555b825167ffffffffffffffff81116118945761161e600a546126e5565b601f8111611927575b506020601f82116001146118b557819293946000926118aa575b50508160011b916000199060031b1c191617600a555b606435600b55608435600c5560a435600d5580519067ffffffffffffffff821161189457611686600e546126e5565b601f811161182f575b50602090601f83116001146117845791807f311b755ec793db1f5a30690dd7760421bcac1a4bc53702edcfb72b37a9795b93949261170394600092611779575b50508160011b916000199060031b1c191617600e555b60ff19601c5416601c556040519182916040835260408301906124ce565b60643560208301520390a1600080516020612ee783398151915260e060125460ff6021541660018060a01b036006541690604051926064358452602084015215156040830152606082015260a06080820152601160a082015270115d995b9d0819195d185a5b1cc81cd95d607a1b60c0820152a1005b0151905085806116cf565b90601f19831691600e6000527fbb7b4a454dc3493923482f07822329ed19e8244eff582cc204f8554c3620c3fd9260005b8181106118175750926001928592611703967f311b755ec793db1f5a30690dd7760421bcac1a4bc53702edcfb72b37a9795b939896106117fe575b505050811b01600e556116e5565b015160001960f88460031b161c191690558580806117f0565b929360206001819287860151815501950193016117b5565b600e6000527fbb7b4a454dc3493923482f07822329ed19e8244eff582cc204f8554c3620c3fd601f840160051c8101916020851061188a575b601f0160051c01905b81811061187e575061168f565b60008155600101611871565b9091508190611868565b634e487b7160e01b600052604160045260246000fd5b015190508480611641565b601f19821690600a600052600080516020612ec78339815191529160005b81811061190f575095836001959697106118f6575b505050811b01600a55611657565b015160001960f88460031b161c191690558480806118e8565b9192602060018192868b0151815501940192016118d3565b600a600052601f820160051c600080516020612ec783398151915201906020831061197e575b601f0160051c600080516020612ec783398151915201905b8181106119725750611627565b60008155600101611965565b600080516020612ec7833981519152915061194d565b0151905085806115ec565b601f198216956009600052600080516020612f078339815191529160005b8881106119f9575083600195969798106119e0575b505050811b01600955611602565b015160001960f88460031b161c191690558580806119d2565b919260206001819286850151815501940192016119bd565b6009600052601f820160051c600080516020612f07833981519152019060208310611a68575b601f0160051c600080516020612f0783398151915201905b818110611a5c57506115cf565b60008155600101611a4f565b600080516020612f078339815191529150611a37565b905083015186611595565b600860009081527ff3f7a9fe364faab93b216da50a3214154f22a0a2b415b23a84c8169e8b636ee39250601f198416905b818110611af557509083600194939210611adc575b5050811b016008556115aa565b85015160001960f88460031b161c191690558680611acf565b9192602060018192868a015181550194019201611aba565b60086000527ff3f7a9fe364faab93b216da50a3214154f22a0a2b415b23a84c8169e8b636ee3601f830160051c81019160208410611b68575b601f0160051c01905b818110611b5c575061157e565b60008155600101611b4f565b9091508190611b46565b6084907f456e642074696d65206d7573742062652061667465722073746172742074696d6040519162461bcd60e51b83526020600484015260216024840152820152606560f81b6064820152fd5b6084907f53746172742074696d65206d757374206265206166746572206576656e7420646040519162461bcd60e51b835260206004840152602360248401528201526261746560e81b6064820152fd5b60649071496e76616c6964206576656e74206461746560701b6040519162461bcd60e51b83526020600484015260126024840152820152fd5b6064907f56656e7565206e616d652063616e6e6f7420626520656d7074790000000000006040519162461bcd60e51b835260206004840152601a6024840152820152fd5b6064907f4576656e7420616464726573732063616e6e6f7420626520656d7074790000006040519162461bcd60e51b835260206004840152601d6024840152820152fd5b6064907f4576656e74206e616d652063616e6e6f7420626520656d7074790000000000006040519162461bcd60e51b835260206004840152601a6024840152820152fd5b346104b35760003660031901126104b357602060405162278d008152f35b346104b357610a3c611d443661253a565b91611d52610a228433612836565b6128fe565b346104b35760403660031901126104b3576004356001600160a01b038116908190036104b357602435611d8861261e565b600260075414611e77576002600755601354808211611e325781611dab91612d27565b601355600080808084865af1611dbf612a1d565b5015611dfc577fa5957fefb5b0f981554450d4d8dde003083cd202e3d5a2992e09c88ad1f0d7919160409182519182526020820152a16001600755005b60405162461bcd60e51b815260206004820152600e60248201526d14185e5b595b9d0819985a5b195960921b6044820152606490fd5b60405162461bcd60e51b815260206004820152601b60248201527f496e73756666696369656e7420657363726f772062616c616e636500000000006044820152606490fd5b60405162461bcd60e51b815260206004820152601f60248201527f5265656e7472616e637947756172643a207265656e7472616e742063616c6c006044820152606490fd5b346104b35760403660031901126104b357611ed561250e565b602435906001600160a01b038080611eec856126c2565b16921691808314611fe757803314908115611fc2575b5015611f5757600083815260046020526040902080546001600160a01b03191683179055611f2f836126c2565b167f8c5be1e5ebec7d5bd14f71427d1e84f3dd0314c0f7b2291e5b200ac8c7c3b925600080a4005b60405162461bcd60e51b815260206004820152603d60248201527f4552433732313a20617070726f76652063616c6c6572206973206e6f7420746f60448201527f6b656e206f776e6572206f7220617070726f76656420666f7220616c6c0000006064820152608490fd5b9050600052600560205260406000203360005260205260ff6040600020541684611f02565b60405162461bcd60e51b815260206004820152602160248201527f4552433732313a20617070726f76616c20746f2063757272656e74206f776e656044820152603960f91b6064820152608490fd5b6020806003193601126104b35761204b61250e565b60ff602154169061205b82612d34565b825491600f54831015612368576001600160a01b039082821690811561233157601054156122f55761208b612dcf565b34106122b957610a3761216291866120a1612dcf565b966120df604051936120b28561256f565b6000808652848152600260205260409020546120da906001600160a01b031615155b15612d76565b612d34565b600082815260026020526040902054612102906001600160a01b031615156120d4565b8560005260038a526040600020600181540190558160005260028a526040600020866001600160601b0360a01b825416179055818660007fddf252ad1be2c89b69c2b068fc378daa952ba7f163c4a11628f55a4df523b3ef8180a4612a4d565b845491600183018093116113885760e0600080516020612ee7833981519152918794855561219286601254612dc2565b601255866000526022855285604060002055600b54906012549060ff602154169060065416916040519384528784015215156040830152606082015260a06080820152600d60a08201526c151a58dad95d081b5a5b9d1959609a1b60c0820152a182341161225b575b917fe3bc6f5972e89b7adec47f0277204f27cd981570e200dd4d408093535c9e8e6960407f66cbca4f3c64fecf1dcb9ce094abcf7f68c3450a1d4e3a8e917dd621edb4ebe09481519081528685820152a1604051908152a1604051908152f35b9050600080808061226c8634612d27565b335af1612277612a1d565b50156122845783906121fb565b60405162461bcd60e51b815260048101859052600d60248201526c1499599d5b990819985a5b1959609a1b6044820152606490fd5b60405162461bcd60e51b8152600481018790526014602482015273125b9cdd59999a58da595b9d081c185e5b595b9d60621b6044820152606490fd5b60405162461bcd60e51b8152600481018790526014602482015273151a58dad95d081c1c9a58d9481b9bdd081cd95d60621b6044820152606490fd5b60405162461bcd60e51b815260048101879052600f60248201526e496e76616c6964206164647265737360881b6044820152606490fd5b60405162461bcd60e51b8152600481018590526012602482015271105b1b081d1a58dad95d1cc81b5a5b9d195960721b6044820152606490fd5b346104b35760203660031901126104b35760206112d260043561271f565b346104b35760003660031901126104b357604051600080546123e1816126e5565b80845290600190818116908115610f95575060011461240a5761092d84610f288186038261258b565b600080805292507f290decd9548b62a8d60345a988386fc84ba6bc95484008f6362f93160ef3e5635b82841061244b575050508101602001610f2882610f18565b80546020858701810191909152909301928101612433565b346104b35760203660031901126104b3576004359063ffffffff60e01b82168092036104b3576020916380ac58cd60e01b81149081156124bd575b81156124ac575b5015158152f35b6301ffc9a760e01b149050836124a5565b635b5e139f60e01b8114915061249e565b919082519283825260005b8481106124fa575050826000602080949584010152601f8019910116010190565b6020818301810151848301820152016124d9565b600435906001600160a01b03821682036104b357565b602435906001600160a01b03821682036104b357565b60609060031901126104b3576001600160a01b039060043582811681036104b3579160243590811681036104b3579060443590565b6020810190811067ffffffffffffffff82111761189457604052565b90601f8019910116810190811067ffffffffffffffff82111761189457604052565b67ffffffffffffffff811161189457601f01601f191660200190565b9291926125d5826125ad565b916125e3604051938461258b565b8294818452818301116104b3578281602093846000960137010152565b9080601f830112156104b35781602061261b933591016125c9565b90565b6006546001600160a01b0316330361263257565b606460405162461bcd60e51b815260206004820152602060248201527f4f776e61626c653a2063616c6c6572206973206e6f7420746865206f776e65726044820152fd5b1561267d57565b60405162461bcd60e51b815260206004820152601860248201527f4552433732313a20696e76616c696420746f6b656e20494400000000000000006044820152606490fd5b6000908152600260205260409020546001600160a01b031661261b811515612676565b90600182811c92168015612715575b60208310146126ff57565b634e487b7160e01b600052602260045260246000fd5b91607f16916126f4565b600081815260026020526040902054612742906001600160a01b03161515612676565b6000908152600460205260409020546001600160a01b031690565b1561276457565b60405162461bcd60e51b815260206004820152602d60248201527f4552433732313a2063616c6c6572206973206e6f7420746f6b656e206f776e6560448201526c1c881bdc88185c1c1c9bdd9959609a1b6064820152608490fd5b60809060208152603260208201527f4552433732313a207472616e7366657220746f206e6f6e20455243373231526560408201527131b2b4bb32b91034b6b83632b6b2b73a32b960711b60608201520190565b1561281957565b60405162461bcd60e51b815280612832600482016127bf565b0390fd5b906001600160a01b03808061284a846126c2565b1693169183831493841561287d575b508315612867575b50505090565b6128739192935061271f565b1614388080612861565b909350600052600560205260406000208260005260205260ff604060002054169238612859565b156128ab57565b60405162461bcd60e51b815260206004820152602560248201527f4552433732313a207472616e736665722066726f6d20696e636f72726563742060448201526437bbb732b960d91b6064820152608490fd5b906129269161290c846126c2565b6001600160a01b03939184169284929091831684146128a4565b169182156129cc57816129519161294160ff60215416612d34565b61294a866126c2565b16146128a4565b7fddf252ad1be2c89b69c2b068fc378daa952ba7f163c4a11628f55a4df523b3ef60008481526004602052604081206001600160601b0360a01b9081815416905583825260036020526040822060001981540190558482526040822060018154019055858252600260205284604083209182541617905580a4565b60405162461bcd60e51b8152602060048201526024808201527f4552433732313a207472616e7366657220746f20746865207a65726f206164646044820152637265737360e01b6064820152608490fd5b3d15612a48573d90612a2e826125ad565b91612a3c604051938461258b565b82523d6000602084013e565b606090565b9091600091803b15612b3f57612a986020918493604051948580948193630a85bd0160e11b9a8b845233600485015284602485015260448401526080606484015260848301906124ce565b03926001600160a01b03165af190829082612af0575b5050612ae257612abc612a1d565b80519081612add5760405162461bcd60e51b815280612832600482016127bf565b602001fd5b6001600160e01b0319161490565b909192506020813d8211612b37575b81612b0c6020938361258b565b81010312612b335751906001600160e01b031982168203612b305750903880612aae565b80fd5b5080fd5b3d9150612aff565b50505050600190565b91926000929190813b15612bb957602091612b9e9185604051958680958194630a85bd0160e11b9b8c845233600485015260018060a01b03809516602485015260448401526080606484015260848301906124ce565b0393165af190829082612af0575050612ae257612abc612a1d565b5050505050600190565b8181029291811591840414171561138857565b600b548015612cd45780421015612c7d5760125415612c1d57612bfa904290612d27565b62278d008110612c0a5750600590565b62093a8011612c1857600f90565b601e90565b60405162461bcd60e51b815260206004820152603260248201527f4e6f20726576656e756520746f2063616c63756c6174652070656e616c7479206044820152715b63616c63756c61746550656e616c74795d60701b6064820152608490fd5b60405162461bcd60e51b815260206004820152602960248201527f4576656e7420616c7265616479206f63637572726564205b63616c63756c61746044820152686550656e616c74795d60b81b6064820152608490fd5b60405162461bcd60e51b815260206004820152602560248201527f4576656e742064617465206e6f7420736574205b63616c63756c61746550656e604482015264616c74795d60d81b6064820152608490fd5b9190820391821161138857565b15612d3b57565b60405162461bcd60e51b81526020600482015260136024820152724576656e74206973206e6f742061637469766560681b6044820152606490fd5b15612d7d57565b60405162461bcd60e51b815260206004820152601c60248201527f4552433732313a20746f6b656e20616c7265616479206d696e746564000000006044820152606490fd5b9190820180921161138857565b60ff6011541615612ec05760205460648102908082046064148115171561138857600f54918215612eaa57829004601654918293601a544210612e8a575b605f831015612e7f5760011c10612e49575b509050601754808211612e41575b50601854808210612e3c575090565b905090565b905038612e2d565b603119810190811161138857612e7161271091612e6c612e7895601b5490612bc3565b612bc3565b0490612dc2565b8038612e1f565b505050505060175490565b92612ea4906064612e9d60195483612bc3565b0490612d27565b92612e0d565b634e487b7160e01b600052601260045260246000fd5b6010549056fec65a7bb8d6351c1cf70c95a316cc6a92839c986682d98bc35f958f4883f9d2a8ef1db5e9aa6982a9d5e46d9461d6114866bb057305d4b3555b368ef13525bec66e1540171b6c0c960b71a7020d9f60077f6af931a8bbf590da0223dacf75c7afa26469706673582212201e54f7093d0f1f8789797613ab2f82f4d5859b9e55c3023638d706a18e3d7c3264736f6c63430008130033a26469706673582212206022f45f5851cee65fece18538a99f1cefc215d6a9b4c0b7b4e76af3592fde1a64736f6c63430008130033",
  "immutableReferences": {
    "15876": [
      {
        "length": 32,
        "start": 523
      },
      {
        "length": 32,
        "start": 636
      }
    ]
  },
  "source": "// SPDX-License-Identifier: MIT\npragma solidity ^0.8.19;\n\nimport \"@openzeppelin/contracts/access/Ownable.sol\";\nimport \"../ParentEventContract.sol\";\n\ncontract EventFactory is Ownable {\n    // Fee for creating an event\n    uint256 public eventCreationFee;\n\n    // Array to track all created events\n    address[] public events;\n\n    // Mapping to check if an address is a created event\n    mapping(address => bool) public isEvent;\n\n    // Reference to the artist factory\n    address public immutable artistFactory;\n\n    event EventCreated(address indexed eventAddress, address indexed creator);\n    event FeeUpdated(uint256 newFee);\n    event FeesWithdrawn(uint256 amount);\n\n    constructor(uint256 _eventCreationFee, address _artistFactory) {\n        require(_artistFactory != address(0), \"Invalid artist factory\");\n        eventCreationFee = _eventCreationFee;\n        artistFactory = _artistFactory;\n    }\n\n    function createEvent() external payable returns (address) {\n        require(msg.value >= eventCreationFee, \"Insufficient fee\");\n\n        // Deploy new event contract with artist factory address\n        ParentEventContract newEvent = new ParentEventContract(artistFactory);\n\n        // Transfer ownership to creator\n        newEvent.transferOwnership(msg.sender);\n\n        // Record the new event\n        events.push(address(newEvent));\n        isEvent[address(newEvent)] = true;\n\n        emit EventCreated(address(newEvent), msg.sender);\n\n        return address(newEvent);\n    }\n\n    function updateEventCreationFee(uint256 _newFee) external onlyOwner {\n        eventCreationFee = _newFee;\n        emit FeeUpdated(_newFee);\n    }\n\n    function withdrawFees() external onlyOwner {\n        uint256 balance = address(this).balance;\n        require(balance > 0, \"No fees to withdraw\");\n\n        (bool success, ) = owner().call{value: balance}(\"\");\n        require(success, \"Fee withdrawal failed\");\n\n        emit FeesWithdrawn(balance);\n    }\n\n    function getEventCount() external view returns (uint256) {\n        return events.length;\n    }\n\n    function getEvents(uint256 start, uint256 end) \n        external \n        view \n        returns (address[] memory) \n    {\n        require(start <= end && end < events.length, \"Invalid range\");\n\n        uint256 length = end - start + 1;\n        address[] memory result = new address[](length);\n\n        for (uint256 i = 0; i < length; i++) {\n            result[i] = events[start + i];\n        }\n\n        return result;\n    }\n}",
  "sourcePath": "/home/runner/workspace/contracts/factories/EventFactory.sol",
  "compiler": {
    "name": "solc",
    "version": "0.8.19+commit.7dd6d404.Emscripten.clang"
  },
  "schemaVersion": "3.4.16",
  "updatedAt": "2025-03-01T00:09:26.862Z",
  "networkType": "ethereum",
  "devdoc": {
    "kind": "dev",
    "methods": {
      "owner()": {
        "details": "Returns the address of the current owner."
      },
      "renounceOwnership()": {
        "details": "Leaves the contract without owner. It will not be possible to call `onlyOwner` functions. Can only be called by the current owner. NOTE: Renouncing ownership will leave the contract without an owner, thereby disabling any functionality that is only available to the owner."
      },
      "transferOwnership(address)": {
        "details": "Transfers ownership of the contract to a new account (`newOwner`). Can only be called by the current owner."
      }
    },
    "version": 1
  },
  "userdoc": {
    "kind": "user",
    "methods": {},
    "version": 1
  }
}