{
  "contractName": "XAOGovernance",
  "abi": [
    {
      "inputs": [
        {
          "internalType": "address",
          "name": "_xaoToken",
          "type": "address"
        },
        {
          "internalType": "address",
          "name": "_xaoStaking",
          "type": "address"
        }
      ],
      "stateMutability": "nonpayable",
      "type": "constructor"
    },
    {
      "anonymous": false,
      "inputs": [
        {
          "indexed": true,
          "internalType": "uint256",
          "name": "proposalId",
          "type": "uint256"
        },
        {
          "indexed": true,
          "internalType": "address",
          "name": "proposer",
          "type": "address"
        },
        {
          "indexed": false,
          "internalType": "enum XAOGovernance.Domain",
          "name": "domain",
          "type": "uint8"
        }
      ],
      "name": "ProposalCreated",
      "type": "event"
    },
    {
      "anonymous": false,
      "inputs": [
        {
          "indexed": true,
          "internalType": "uint256",
          "name": "proposalId",
          "type": "uint256"
        }
      ],
      "name": "ProposalExecuted",
      "type": "event"
    },
    {
      "anonymous": false,
      "inputs": [
        {
          "indexed": true,
          "internalType": "address",
          "name": "user",
          "type": "address"
        },
        {
          "indexed": false,
          "internalType": "enum XAOGovernance.Domain",
          "name": "domain",
          "type": "uint8"
        },
        {
          "indexed": false,
          "internalType": "uint256",
          "name": "newReputation",
          "type": "uint256"
        }
      ],
      "name": "ReputationUpdated",
      "type": "event"
    },
    {
      "anonymous": false,
      "inputs": [
        {
          "indexed": true,
          "internalType": "bytes32",
          "name": "role",
          "type": "bytes32"
        },
        {
          "indexed": true,
          "internalType": "bytes32",
          "name": "previousAdminRole",
          "type": "bytes32"
        },
        {
          "indexed": true,
          "internalType": "bytes32",
          "name": "newAdminRole",
          "type": "bytes32"
        }
      ],
      "name": "RoleAdminChanged",
      "type": "event"
    },
    {
      "anonymous": false,
      "inputs": [
        {
          "indexed": true,
          "internalType": "bytes32",
          "name": "role",
          "type": "bytes32"
        },
        {
          "indexed": true,
          "internalType": "address",
          "name": "account",
          "type": "address"
        },
        {
          "indexed": true,
          "internalType": "address",
          "name": "sender",
          "type": "address"
        }
      ],
      "name": "RoleGranted",
      "type": "event"
    },
    {
      "anonymous": false,
      "inputs": [
        {
          "indexed": true,
          "internalType": "bytes32",
          "name": "role",
          "type": "bytes32"
        },
        {
          "indexed": true,
          "internalType": "address",
          "name": "account",
          "type": "address"
        },
        {
          "indexed": true,
          "internalType": "address",
          "name": "sender",
          "type": "address"
        }
      ],
      "name": "RoleRevoked",
      "type": "event"
    },
    {
      "anonymous": false,
      "inputs": [
        {
          "indexed": true,
          "internalType": "uint256",
          "name": "proposalId",
          "type": "uint256"
        },
        {
          "indexed": true,
          "internalType": "address",
          "name": "voter",
          "type": "address"
        },
        {
          "indexed": false,
          "internalType": "bool",
          "name": "support",
          "type": "bool"
        },
        {
          "indexed": false,
          "internalType": "uint256",
          "name": "weight",
          "type": "uint256"
        }
      ],
      "name": "VoteCast",
      "type": "event"
    },
    {
      "inputs": [],
      "name": "ADMIN_ROLE",
      "outputs": [
        {
          "internalType": "bytes32",
          "name": "",
          "type": "bytes32"
        }
      ],
      "stateMutability": "view",
      "type": "function",
      "constant": true
    },
    {
      "inputs": [],
      "name": "DEFAULT_ADMIN_ROLE",
      "outputs": [
        {
          "internalType": "bytes32",
          "name": "",
          "type": "bytes32"
        }
      ],
      "stateMutability": "view",
      "type": "function",
      "constant": true
    },
    {
      "inputs": [],
      "name": "DOMAIN_BONUS_MULTIPLIER",
      "outputs": [
        {
          "internalType": "uint256",
          "name": "",
          "type": "uint256"
        }
      ],
      "stateMutability": "view",
      "type": "function",
      "constant": true
    },
    {
      "inputs": [],
      "name": "EXECUTOR_ROLE",
      "outputs": [
        {
          "internalType": "bytes32",
          "name": "",
          "type": "bytes32"
        }
      ],
      "stateMutability": "view",
      "type": "function",
      "constant": true
    },
    {
      "inputs": [],
      "name": "MIN_PROPOSAL_STAKE",
      "outputs": [
        {
          "internalType": "uint256",
          "name": "",
          "type": "uint256"
        }
      ],
      "stateMutability": "view",
      "type": "function",
      "constant": true
    },
    {
      "inputs": [],
      "name": "PROPOSER_ROLE",
      "outputs": [
        {
          "internalType": "bytes32",
          "name": "",
          "type": "bytes32"
        }
      ],
      "stateMutability": "view",
      "type": "function",
      "constant": true
    },
    {
      "inputs": [],
      "name": "TREASURY_ROLE",
      "outputs": [
        {
          "internalType": "bytes32",
          "name": "",
          "type": "bytes32"
        }
      ],
      "stateMutability": "view",
      "type": "function",
      "constant": true
    },
    {
      "inputs": [],
      "name": "VOTING_PERIOD",
      "outputs": [
        {
          "internalType": "uint256",
          "name": "",
          "type": "uint256"
        }
      ],
      "stateMutability": "view",
      "type": "function",
      "constant": true
    },
    {
      "inputs": [
        {
          "internalType": "address",
          "name": "",
          "type": "address"
        },
        {
          "internalType": "enum XAOGovernance.Domain",
          "name": "",
          "type": "uint8"
        }
      ],
      "name": "domainReputation",
      "outputs": [
        {
          "internalType": "uint256",
          "name": "",
          "type": "uint256"
        }
      ],
      "stateMutability": "view",
      "type": "function",
      "constant": true
    },
    {
      "inputs": [
        {
          "internalType": "bytes32",
          "name": "role",
          "type": "bytes32"
        }
      ],
      "name": "getRoleAdmin",
      "outputs": [
        {
          "internalType": "bytes32",
          "name": "",
          "type": "bytes32"
        }
      ],
      "stateMutability": "view",
      "type": "function",
      "constant": true
    },
    {
      "inputs": [
        {
          "internalType": "bytes32",
          "name": "role",
          "type": "bytes32"
        },
        {
          "internalType": "address",
          "name": "account",
          "type": "address"
        }
      ],
      "name": "grantRole",
      "outputs": [],
      "stateMutability": "nonpayable",
      "type": "function"
    },
    {
      "inputs": [
        {
          "internalType": "bytes32",
          "name": "role",
          "type": "bytes32"
        },
        {
          "internalType": "address",
          "name": "account",
          "type": "address"
        }
      ],
      "name": "hasRole",
      "outputs": [
        {
          "internalType": "bool",
          "name": "",
          "type": "bool"
        }
      ],
      "stateMutability": "view",
      "type": "function",
      "constant": true
    },
    {
      "inputs": [],
      "name": "proposalCount",
      "outputs": [
        {
          "internalType": "uint256",
          "name": "",
          "type": "uint256"
        }
      ],
      "stateMutability": "view",
      "type": "function",
      "constant": true
    },
    {
      "inputs": [
        {
          "internalType": "uint256",
          "name": "",
          "type": "uint256"
        }
      ],
      "name": "proposals",
      "outputs": [
        {
          "internalType": "string",
          "name": "description",
          "type": "string"
        },
        {
          "internalType": "uint256",
          "name": "proposalDate",
          "type": "uint256"
        },
        {
          "internalType": "uint256",
          "name": "votingEnds",
          "type": "uint256"
        },
        {
          "internalType": "address",
          "name": "proposer",
          "type": "address"
        },
        {
          "internalType": "enum XAOGovernance.Domain",
          "name": "domain",
          "type": "uint8"
        },
        {
          "internalType": "uint256",
          "name": "requiredStake",
          "type": "uint256"
        },
        {
          "internalType": "uint256",
          "name": "forVotes",
          "type": "uint256"
        },
        {
          "internalType": "uint256",
          "name": "againstVotes",
          "type": "uint256"
        },
        {
          "internalType": "bool",
          "name": "executed",
          "type": "bool"
        }
      ],
      "stateMutability": "view",
      "type": "function",
      "constant": true
    },
    {
      "inputs": [
        {
          "internalType": "bytes32",
          "name": "role",
          "type": "bytes32"
        },
        {
          "internalType": "address",
          "name": "account",
          "type": "address"
        }
      ],
      "name": "renounceRole",
      "outputs": [],
      "stateMutability": "nonpayable",
      "type": "function"
    },
    {
      "inputs": [
        {
          "internalType": "bytes32",
          "name": "role",
          "type": "bytes32"
        },
        {
          "internalType": "address",
          "name": "account",
          "type": "address"
        }
      ],
      "name": "revokeRole",
      "outputs": [],
      "stateMutability": "nonpayable",
      "type": "function"
    },
    {
      "inputs": [
        {
          "internalType": "bytes4",
          "name": "interfaceId",
          "type": "bytes4"
        }
      ],
      "name": "supportsInterface",
      "outputs": [
        {
          "internalType": "bool",
          "name": "",
          "type": "bool"
        }
      ],
      "stateMutability": "view",
      "type": "function",
      "constant": true
    },
    {
      "inputs": [],
      "name": "xaoStaking",
      "outputs": [
        {
          "internalType": "contract XAOStaking",
          "name": "",
          "type": "address"
        }
      ],
      "stateMutability": "view",
      "type": "function",
      "constant": true
    },
    {
      "inputs": [],
      "name": "xaoToken",
      "outputs": [
        {
          "internalType": "contract XAOToken",
          "name": "",
          "type": "address"
        }
      ],
      "stateMutability": "view",
      "type": "function",
      "constant": true
    },
    {
      "inputs": [
        {
          "internalType": "string",
          "name": "description",
          "type": "string"
        },
        {
          "internalType": "enum XAOGovernance.Domain",
          "name": "domain",
          "type": "uint8"
        }
      ],
      "name": "createProposal",
      "outputs": [
        {
          "internalType": "uint256",
          "name": "",
          "type": "uint256"
        }
      ],
      "stateMutability": "nonpayable",
      "type": "function"
    },
    {
      "inputs": [
        {
          "internalType": "uint256",
          "name": "proposalId",
          "type": "uint256"
        },
        {
          "internalType": "bool",
          "name": "support",
          "type": "bool"
        }
      ],
      "name": "castVote",
      "outputs": [],
      "stateMutability": "nonpayable",
      "type": "function"
    },
    {
      "inputs": [
        {
          "internalType": "uint256",
          "name": "proposalId",
          "type": "uint256"
        }
      ],
      "name": "executeProposal",
      "outputs": [],
      "stateMutability": "nonpayable",
      "type": "function"
    },
    {
      "inputs": [
        {
          "internalType": "address",
          "name": "user",
          "type": "address"
        },
        {
          "internalType": "enum XAOGovernance.Domain",
          "name": "domain",
          "type": "uint8"
        },
        {
          "internalType": "uint256",
          "name": "amount",
          "type": "uint256"
        }
      ],
      "name": "updateDomainReputation",
      "outputs": [],
      "stateMutability": "nonpayable",
      "type": "function"
    },
    {
      "inputs": [
        {
          "internalType": "uint256",
          "name": "proposalId",
          "type": "uint256"
        }
      ],
      "name": "getProposal",
      "outputs": [
        {
          "internalType": "string",
          "name": "description",
          "type": "string"
        },
        {
          "internalType": "uint256",
          "name": "votingEnds",
          "type": "uint256"
        },
        {
          "internalType": "address",
          "name": "proposer",
          "type": "address"
        },
        {
          "internalType": "enum XAOGovernance.Domain",
          "name": "domain",
          "type": "uint8"
        },
        {
          "internalType": "uint256",
          "name": "forVotes",
          "type": "uint256"
        },
        {
          "internalType": "uint256",
          "name": "againstVotes",
          "type": "uint256"
        },
        {
          "internalType": "bool",
          "name": "executed",
          "type": "bool"
        }
      ],
      "stateMutability": "view",
      "type": "function",
      "constant": true
    }
  ],
  "bytecode": "0x608034620002215762001c6a90601f38839003908101601f19168201906001600160401b0382118383101762000226578083916040958694855283398101031262000221576200004f816200023c565b6200005e60208093016200023c565b9060019182805560018060a01b03908160018060a01b0319931683600254161760025516906003541617600355600090818052818352838220338352835260ff848320541615620001ea575b7fa49807205ce4d355092ef5a8a18f56e8913cf4a201fbe287825b095693c2177592838352828152848320338452815260ff858420541615620001b3575b827fb09aa5aeb3702cfd50b6b62bc4532604938f21248a27a1d5ca736082b6819cc1918282525283828685200181815491557fbd79b86ffe0ab8e8776151514217cd7cacd52c909f66475c3af44e129f0b00ff92838680a4837fd8aa0f3194971a2a116679f7c2090f6939c8d4e01a2a8d7e41d55e5351469e638085528387862001908282549255838680a47fe1dcbdb91df27212a29bc27177c840cf2f819ecf2187432e1fac86c2dd5dfca9918284528584200192848454945580a4516119f89081620002528239f35b83835282815284832033845281528483208260ff1982541617905533338560008051602062001c4a8339815191528680a4620000e8565b81805281835283822033835283528382208160ff1982541617905533338360008051602062001c4a8339815191528180a4620000aa565b600080fd5b634e487b7160e01b600052604160045260246000fd5b51906001600160a01b0382168203620002215756fe6080604052600436101561001257600080fd5b60003560e01c8063013cf08b1461134b57806301ffc9a7146112f557806307bd0265146112ba5780630d61b51914610f6957806315373e3d14610de5578063248a9ca314610db65780632f2ff15d14610d0357806336568abe14610c715780633ffc7cff14610a0f5780636e6a6263146109eb5780636f9169501461099c57806375b238fc146109615780637cb008c0146109385780638f61f4f5146108fd57806391d14854146108b057806395b144e414610887578063a217fddf1461086b578063a4d52dd51461084f578063b1610d7e14610831578063c7f758a814610792578063d11a57ec14610757578063d1c29a2914610188578063d547741f146101475763da35c6641461012457600080fd5b34610142576000366003190112610142576020600454604051908152f35b600080fd5b346101425760403660031901126101425761018660043561016661158a565b908060005260006020526101816001604060002001546115ce565b61176f565b005b346101425760403660031901126101425760043567ffffffffffffffff808211610142573660238301121561014257816004013581811161054957604051926101db601f8301601f191660200185611457565b81845236602483830101116101425781600092602460209301838701378401015260056024351015610142573360009081527f3412d5605ac6cd444957cedb533e5dacad6378b4bc819ebe3652188a665066d560205260409020547fb09aa5aeb3702cfd50b6b62bc4532604938f21248a27a1d5ca736082b6819cc19060ff16156105d457506002546040516370a0823160e01b815233600482015290602090829060249082906001600160a01b03165afa801561047257600090610599575b683635c9adc5dea0000091501061055f5760045490600019821461047e57600182016004558160005260056020526040600020908351908111610549576102e28254611401565b601f8111610505575b506020601f821160011461049f5781929394600092610494575b50508160011b916000199060031b1c19161781555b42600182015562093a80420180421161047e57816004916002683635c9adc5dea0000094015560038101805460ff60a01b60243560a01b169060ff60a01b193316906affffffffffffffffffffff60a81b161717905501556000602060018060a01b03600254166064604051809481936323b872dd60e01b8352336004840152306024840152683635c9adc5dea0000060448401525af190811561047257600091610443575b5015610406576020906040516103d881602435611567565b817f876b000c101c27e7aaff6a3254ea503d0e9bf516112d43803bd82989b1355235843393a3604051908152f35b60405162461bcd60e51b815260206004820152601560248201527414dd185ad9481d1c985b9cd9995c8819985a5b1959605a1b6044820152606490fd5b610465915060203d60201161046b575b61045d8183611457565b8101906118cc565b826103c0565b503d610453565b6040513d6000823e3d90fd5b634e487b7160e01b600052601160045260246000fd5b015190508480610305565b601f198216908360005260206000209160005b8181106104ed575095836001959697106104d4575b505050811b01815561031a565b015160001960f88460031b161c191690558480806104c7565b9192602060018192868b0151815501940192016104b2565b826000526020600020601f830160051c810160208410610542575b601f830160051c820181106105365750506102eb565b60008155600101610520565b5080610520565b634e487b7160e01b600052604160045260246000fd5b60405162461bcd60e51b8152602060048201526012602482015271496e73756666696369656e74207374616b6560701b6044820152606490fd5b506020813d6020116105cc575b816105b360209383611457565b8101031261014257683635c9adc5dea00000905161029b565b3d91506105a6565b6105dd33611801565b604051916105ea8361143b565b60428352602083019060603683378351156107415760308253835160019081101561074157607860218601536041905b8082116106fd5750506106cb576048610698926106a7926106c79560405195869376020b1b1b2b9b9a1b7b73a3937b61d1030b1b1b7bab73a1604d1b602086015261066f81518092602060378901910161151f565b8401917001034b99036b4b9b9b4b733903937b6329607d1b60378401525180938684019061151f565b01036028810184520182611457565b60405162461bcd60e51b8152602060048201529182916024830190611542565b0390fd5b606460405162461bcd60e51b815260206004820152602060248201526000805160206119a38339815191526044820152fd5b9091600f81166010811015610741576f181899199a1a9b1b9c1cb0b131b232b360811b901a61072c84886117f0565b5360041c91801561047e57600019019061061a565b634e487b7160e01b600052603260045260246000fd5b346101425760003660031901126101425760206040517fe1dcbdb91df27212a29bc27177c840cf2f819ecf2187432e1fac86c2dd5dfca98152f35b346101425760203660031901126101425760043560005260056020526107f560406000206002810154600382015491600581015460068201549061081c6107e060ff60078601541694611479565b9560405197889760e0895260e0890190611542565b60208801969096526001600160a01b0381166040880152606087019060a01c60ff16611567565b608085015260a0840152151560c08301520390f35b3461014257600036600319011261014257602060405162093a808152f35b3461014257600036600319011261014257602060405160a08152f35b3461014257600036600319011261014257602060405160008152f35b34610142576000366003190112610142576003546040516001600160a01b039091168152602090f35b34610142576040366003190112610142576108c961158a565b600435600052600060205260406000209060018060a01b0316600052602052602060ff604060002054166040519015158152f35b346101425760003660031901126101425760206040517fb09aa5aeb3702cfd50b6b62bc4532604938f21248a27a1d5ca736082b6819cc18152f35b34610142576000366003190112610142576002546040516001600160a01b039091168152602090f35b346101425760003660031901126101425760206040517fa49807205ce4d355092ef5a8a18f56e8913cf4a201fbe287825b095693c217758152f35b34610142576040366003190112610142576109b56115a0565b602435906005821015610142576020916109e29160018060a01b03166000526006835260406000206115b6565b54604051908152f35b34610142576000366003190112610142576020604051683635c9adc5dea000008152f35b3461014257606036600319011261014257610a286115a0565b6024908135906005821015610142573360009081527f7d7ffb7a348e1c6a02869081a26547b49160dd3df72d1d75a570eb9b698292ec6020908152604090912054909360443592917fa49807205ce4d355092ef5a8a18f56e8913cf4a201fbe287825b095693c217759060ff1615610af357857f995530532fa39be47c44313305a15cb6a5d78c5d8b1d963ce7dbff2e105250ec604087878760018060a01b031694856000526006815281610ae084866000206115b6565b55610aed84518094611567565b820152a2005b8590610afe33611801565b90604051610b0b8161143b565b60428152838101916060368437815115610c5c57603083538151600190811015610c4757607860218401536041905b808211610bd9575050610ba95760486106c79361069893610b8d9360405195869376020b1b1b2b9b9a1b7b73a3937b61d1030b1b1b7bab73a1604d1b8a86015261066f815180928c60378901910161151f565b60405193849362461bcd60e51b85526004850152830190611542565b606485856040519162461bcd60e51b83528160048401528201526000805160206119a38339815191526044820152fd5b9091600f81166010811015610c32576f181899199a1a9b1b9c1cb0b131b232b360811b901a610c0884866117f0565b5360041c918015610c1d576000190190610b3a565b87634e487b7160e01b60005260116004526000fd5b88634e487b7160e01b60005260326004526000fd5b86634e487b7160e01b60005260326004526000fd5b85634e487b7160e01b60005260326004526000fd5b3461014257604036600319011261014257610c8a61158a565b336001600160a01b03821603610ca6576101869060043561176f565b60405162461bcd60e51b815260206004820152602f60248201527f416363657373436f6e74726f6c3a2063616e206f6e6c792072656e6f756e636560448201526e103937b632b9903337b91039b2b63360891b6064820152608490fd5b3461014257604036600319011261014257600435610d1f61158a565b816000526000602052610d396001604060002001546115ce565b81600052600060205260406000209060018060a01b0316908160005260205260ff6040600020541615610d6857005b8160005260006020526040600020816000526020526040600020600160ff1982541617905533917f2f8788117e7eff1d82e926ec794901d17c78024a50270940304540a733656f0d600080a4005b346101425760203660031901126101425760043560005260006020526020600160406000200154604051908152f35b34610142576040366003190112610142576004356024359081151591828103610142578160005260206005815260406000206002810154421015610f355760088101903360005281835260ff60406000205416610f0057610e5060ff600383015460a01c16336118e4565b938415610ec95715610eb457600501610e6a8482546117e3565b90555b3360005281526040600020600160ff198254161790556040519384528301527fcbdf6214089cba887ecbf35a0b6a734589959c9763342c756bb2a80ca2bc9f6e60403393a3005b600601610ec28482546117e3565b9055610e6d565b60405162461bcd60e51b815260048101859052600f60248201526e2737903b37ba34b733903837bbb2b960891b6044820152606490fd5b60405162461bcd60e51b815260048101849052600d60248201526c105b1c9958591e481d9bdd1959609a1b6044820152606490fd5b60405162461bcd60e51b815260048101839052600c60248201526b159bdd1a5b99c8195b99195960a21b6044820152606490fd5b346101425760208060031936011261014257600435907fd8aa0f3194971a2a116679f7c2090f6939c8d4e01a2a8d7e41d55e5351469e638060005260008252604060002033600052825260ff604060002054161561117f575081600052600581526040600020600281015442106111475760078101805460ff811661110f576005830154600684015410156110d65760ff19166001179055600254600382015460049283015460405163a9059cbb60e01b81526001600160a01b03928316948101949094526024840152839183916044918391600091165af1908115610472576000916110b9575b501561107f57507f712ae1383f79ac853f8d882153778e0260ef8f03b504e2866e0593e04d2b291f600080a2005b6064906040519062461bcd60e51b82526004820152601360248201527214dd185ad9481c995d1d5c9b8819985a5b1959606a1b6044820152fd5b6110d09150823d841161046b5761045d8183611457565b83611051565b60405162461bcd60e51b8152600481018590526011602482015270141c9bdc1bdcd85b081c995a9958dd1959607a1b6044820152606490fd5b60405162461bcd60e51b815260048101859052601060248201526f105b1c9958591e48195e1958dd5d195960821b6044820152606490fd5b60405162461bcd60e51b815260048101839052601060248201526f159bdd1a5b99c81b9bdd08195b99195960821b6044820152606490fd5b9061118933611801565b916040516111968161143b565b604281528281019160603684378151156107415760308353815160019081101561074157607860218401536041905b80821161127657505061124557611215936112249260489260405196879376020b1b1b2b9b9a1b7b73a3937b61d1030b1b1b7bab73a1604d1b8886015261066f815180928a60378901910161151f565b01036028810185520183611457565b6106c760405192839262461bcd60e51b845260048401526024830190611542565b6064836040519062461bcd60e51b825280600483015260248201526000805160206119a38339815191526044820152fd5b9091600f81166010811015610741576f181899199a1a9b1b9c1cb0b131b232b360811b901a6112a584866117f0565b5360041c91801561047e5760001901906111c5565b346101425760003660031901126101425760206040517fd8aa0f3194971a2a116679f7c2090f6939c8d4e01a2a8d7e41d55e5351469e638152f35b346101425760203660031901126101425760043563ffffffff60e01b811680910361014257602090637965db0b60e01b811490811561133a575b506040519015158152f35b6301ffc9a760e01b1490508261132f565b346101425760203660031901126101425760043560005260056020526113ba604060002061137881611479565b90600181015490600281015490600381015460048201546113e660058401549260ff600760068701549601541695604051998a99610120808c528b0190611542565b60208a019890985260408901526001600160a01b0381166060890152608088019060a01c60ff16611567565b60a086015260c085015260e084015215156101008301520390f35b90600182811c92168015611431575b602083101461141b57565b634e487b7160e01b600052602260045260246000fd5b91607f1691611410565b6080810190811067ffffffffffffffff82111761054957604052565b90601f8019910116810190811067ffffffffffffffff82111761054957604052565b906040519182600082549261148d84611401565b9081845260019485811690816000146114fc57506001146114b9575b50506114b792500383611457565b565b9093915060005260209081600020936000915b8183106114e45750506114b7935082010138806114a9565b855488840185015294850194879450918301916114cc565b9150506114b794506020925060ff191682840152151560051b82010138806114a9565b60005b8381106115325750506000910152565b8181015183820152602001611522565b9060209161155b8151809281855285808601910161151f565b601f01601f1916010190565b9060058210156115745752565b634e487b7160e01b600052602160045260246000fd5b602435906001600160a01b038216820361014257565b600435906001600160a01b038216820361014257565b90600581101561157457600052602052604060002090565b600090808252602090828252604092838120338252835260ff8482205416156115f75750505050565b61160033611801565b9184519061160d8261143b565b6042825284820192606036853782511561175b576030845382519060019182101561175b5790607860218501536041915b8183116116ed575050506116bd5760486106c79386936116a193611692985198899376020b1b1b2b9b9a1b7b73a3937b61d1030b1b1b7bab73a1604d1b8a86015261066f815180928c60378901910161151f565b01036028810187520185611457565b5192839262461bcd60e51b845260048401526024830190611542565b60648486519062461bcd60e51b825280600483015260248201526000805160206119a38339815191526044820152fd5b909192600f81166010811015611747576f181899199a1a9b1b9c1cb0b131b232b360811b901a61171d85876117f0565b5360041c9280156117335760001901919061163e565b634e487b7160e01b82526011600452602482fd5b634e487b7160e01b83526032600452602483fd5b634e487b7160e01b81526032600452602490fd5b9060009180835282602052604083209160018060a01b03169182845260205260ff60408420541661179f57505050565b80835282602052604083208284526020526040832060ff1981541690557ff6391f5c32d9c69d2a47ea670b442974b53935d1edc7fd64eb21e047a839171b339380a4565b9190820180921161047e57565b908151811015610741570160200190565b604051906060820182811067ffffffffffffffff82111761054957604052602a82526020820160403682378251156107415760309053815160019081101561074157607860218401536029905b80821161185e5750506106cb5790565b9091600f811660108110156118b7576f181899199a1a9b1b9c1cb0b131b232b360811b901a61188d84866117f0565b5360041c9180156118a257600019019061184e565b60246000634e487b7160e01b81526011600452fd5b60246000634e487b7160e01b81526032600452fd5b90816020910312610142575180151581036101425790565b600354604051635da6a21b60e11b81526001600160a01b0392831660048201819052909392909160209185916024918391165afa9283156104725760009361196a575b509061193f91600052600660205260406000206115b6565b546119475790565b603c810290808204603c148115171561047e5760646119679204906117e3565b90565b90926020823d821161199a575b8161198460209383611457565b810103126119975750519161193f611927565b80fd5b3d915061197756fe537472696e67733a20686578206c656e67746820696e73756666696369656e74a264697066735822122034a52c2e1530b661cfb8bd70bd7aa6bca1974b6ebe37173a79d2705a4960dc1764736f6c634300081300332f8788117e7eff1d82e926ec794901d17c78024a50270940304540a733656f0d",
  "immutableReferences": {},
  "source": "// SPDX-License-Identifier: MIT\npragma solidity ^0.8.19;\n\nimport \"@openzeppelin/contracts/access/AccessControl.sol\";\nimport \"@openzeppelin/contracts/security/ReentrancyGuard.sol\";\nimport \"@openzeppelin/contracts/utils/math/SafeMath.sol\";\nimport \"./XAOToken.sol\";\nimport \"./XAOStaking.sol\";\n\n/// @title XAO Governance Contract\n/// @author XAO Protocol Team\n/// @notice This contract manages the decentralized governance of the XAO protocol\n/// @dev Implements role-based access control and proposal management with domain-specific voting\ncontract XAOGovernance is AccessControl, ReentrancyGuard {\n    using SafeMath for uint256;\n\n    /// @notice The XAO token contract reference\n    XAOToken public xaoToken;\n    /// @notice The XAO staking contract reference\n    XAOStaking public xaoStaking;\n\n    /// @notice Role definitions for access control\n    bytes32 public constant ADMIN_ROLE = keccak256(\"ADMIN_ROLE\");\n    bytes32 public constant PROPOSER_ROLE = keccak256(\"PROPOSER_ROLE\");\n    bytes32 public constant EXECUTOR_ROLE = keccak256(\"EXECUTOR_ROLE\");\n    bytes32 public constant TREASURY_ROLE = keccak256(\"TREASURY_ROLE\");\n\n    /// @notice Domain types for specialized voting power\n    /// @dev Different domains can have different voting weights\n    enum Domain { General, Development, Community, Marketing, Treasury }\n\n    /// @notice Structure defining a governance proposal\n    /// @dev Includes all necessary information about a proposal and its voting status\n    struct Proposal {\n        string description;     /// @dev Description of the proposal\n        uint256 proposalDate;   /// @dev When the proposal was created\n        uint256 votingEnds;     /// @dev When voting period ends\n        address proposer;       /// @dev Address that created the proposal\n        Domain domain;         /// @dev Domain category of the proposal\n        uint256 requiredStake;  /// @dev Minimum stake required to create proposal\n        uint256 forVotes;       /// @dev Total votes in favor\n        uint256 againstVotes;   /// @dev Total votes against\n        bool executed;         /// @dev Whether the proposal has been executed\n        mapping(address => bool) hasVoted; /// @dev Track who has voted\n    }\n\n    /// @notice Duration of the voting period\n    uint256 public constant VOTING_PERIOD = 7 days;\n    /// @notice Minimum stake required to create a proposal\n    uint256 public constant MIN_PROPOSAL_STAKE = 1000 * 10**18; // 1000 XAO tokens\n    /// @notice Multiplier for domain expertise in voting power\n    uint256 public constant DOMAIN_BONUS_MULTIPLIER = 160; // 60% bonus\n\n    /// @notice Total number of proposals created\n    uint256 public proposalCount;\n    /// @notice Mapping of proposal IDs to proposal details\n    mapping(uint256 => Proposal) public proposals;\n    /// @notice Mapping of user addresses to their domain-specific reputation\n    mapping(address => mapping(Domain => uint256)) public domainReputation;\n\n    /// @notice Emitted when a new proposal is created\n    event ProposalCreated(uint256 indexed proposalId, address indexed proposer, Domain domain);\n    /// @notice Emitted when a vote is cast on a proposal\n    event VoteCast(uint256 indexed proposalId, address indexed voter, bool support, uint256 weight);\n    /// @notice Emitted when a proposal is executed\n    event ProposalExecuted(uint256 indexed proposalId);\n    /// @notice Emitted when a user's reputation in a domain is updated\n    event ReputationUpdated(address indexed user, Domain domain, uint256 newReputation);\n\n    /// @notice Initializes the governance contract\n    /// @dev Sets up initial roles and connects to XAO token and staking contracts\n    /// @param _xaoToken Address of the XAO token contract\n    /// @param _xaoStaking Address of the XAO staking contract\n    constructor(address _xaoToken, address _xaoStaking) {\n        xaoToken = XAOToken(_xaoToken);\n        xaoStaking = XAOStaking(_xaoStaking);\n\n        _setupRole(DEFAULT_ADMIN_ROLE, msg.sender);\n        _setupRole(ADMIN_ROLE, msg.sender);\n        _setRoleAdmin(PROPOSER_ROLE, ADMIN_ROLE);\n        _setRoleAdmin(EXECUTOR_ROLE, ADMIN_ROLE);\n        _setRoleAdmin(TREASURY_ROLE, ADMIN_ROLE);\n    }\n\n    /// @notice Creates a new proposal\n    /// @dev Requires proposer to have sufficient stake and appropriate role\n    /// @param description Description of the proposal\n    /// @param domain Domain category of the proposal\n    /// @return ID of the created proposal\n    function createProposal(\n        string memory description,\n        Domain domain\n    ) external onlyRole(PROPOSER_ROLE) returns (uint256) {\n        require(\n            xaoToken.balanceOf(msg.sender) >= MIN_PROPOSAL_STAKE,\n            \"Insufficient stake\"\n        );\n\n        uint256 proposalId = proposalCount++;\n        Proposal storage newProposal = proposals[proposalId];\n        newProposal.description = description;\n        newProposal.proposalDate = block.timestamp;\n        newProposal.votingEnds = block.timestamp + VOTING_PERIOD;\n        newProposal.proposer = msg.sender;\n        newProposal.domain = domain;\n        newProposal.requiredStake = MIN_PROPOSAL_STAKE;\n\n        require(\n            xaoToken.transferFrom(msg.sender, address(this), MIN_PROPOSAL_STAKE),\n            \"Stake transfer failed\"\n        );\n\n        emit ProposalCreated(proposalId, msg.sender, domain);\n        return proposalId;\n    }\n\n    /// @notice Casts a vote on a proposal\n    /// @dev Takes into account user's voting power and domain expertise\n    /// @param proposalId ID of the proposal\n    /// @param support Whether the vote is in favor or against\n    function castVote(uint256 proposalId, bool support) external {\n        Proposal storage proposal = proposals[proposalId];\n        require(block.timestamp < proposal.votingEnds, \"Voting ended\");\n        require(!proposal.hasVoted[msg.sender], \"Already voted\");\n\n        uint256 votingPower = _calculateVotingPower(msg.sender, proposal.domain);\n        require(votingPower > 0, \"No voting power\");\n\n        if (support) {\n            proposal.forVotes = proposal.forVotes.add(votingPower);\n        } else {\n            proposal.againstVotes = proposal.againstVotes.add(votingPower);\n        }\n\n        proposal.hasVoted[msg.sender] = true;\n        emit VoteCast(proposalId, msg.sender, support, votingPower);\n    }\n\n    /// @notice Executes a successful proposal\n    /// @dev Can only be called by executor role after voting period ends\n    /// @param proposalId ID of the proposal to execute\n    function executeProposal(uint256 proposalId) external onlyRole(EXECUTOR_ROLE) {\n        Proposal storage proposal = proposals[proposalId];\n        require(block.timestamp >= proposal.votingEnds, \"Voting not ended\");\n        require(!proposal.executed, \"Already executed\");\n        require(proposal.forVotes > proposal.againstVotes, \"Proposal rejected\");\n\n        proposal.executed = true;\n        require(\n            xaoToken.transfer(proposal.proposer, proposal.requiredStake),\n            \"Stake return failed\"\n        );\n\n        emit ProposalExecuted(proposalId);\n    }\n\n    /// @notice Updates a user's reputation in a specific domain\n    /// @dev Can only be called by admin role\n    /// @param user Address of the user\n    /// @param domain Domain to update reputation for\n    /// @param amount New reputation amount\n    function updateDomainReputation(\n        address user,\n        Domain domain,\n        uint256 amount\n    ) external onlyRole(ADMIN_ROLE) {\n        domainReputation[user][domain] = amount;\n        emit ReputationUpdated(user, domain, amount);\n    }\n\n    /// @notice Calculates a user's voting power for a specific domain\n    /// @dev Includes domain expertise bonus if applicable\n    /// @param voter Address of the voter\n    /// @param domain Domain to calculate voting power for\n    /// @return Total voting power including any domain bonuses\n    function _calculateVotingPower(\n        address voter,\n        Domain domain\n    ) internal view returns (uint256) {\n        uint256 baseVotingPower = xaoStaking.getVotingPower(voter);\n\n        if (domainReputation[voter][domain] > 0) {\n            uint256 bonus = baseVotingPower.mul(DOMAIN_BONUS_MULTIPLIER.sub(100)).div(100);\n            return baseVotingPower.add(bonus);\n        }\n\n        return baseVotingPower;\n    }\n\n    /// @notice Retrieves details of a specific proposal\n    /// @param proposalId ID of the proposal\n    /// @return description Description of the proposal\n    /// @return votingEnds End time of voting period\n    /// @return proposer Address of the proposer\n    /// @return domain Domain category of the proposal\n    /// @return forVotes Total votes in favor\n    /// @return againstVotes Total votes against\n    /// @return executed Whether the proposal has been executed\n    function getProposal(uint256 proposalId)\n        external\n        view\n        returns (\n            string memory description,\n            uint256 votingEnds,\n            address proposer,\n            Domain domain,\n            uint256 forVotes,\n            uint256 againstVotes,\n            bool executed\n        )\n    {\n        Proposal storage proposal = proposals[proposalId];\n        return (\n            proposal.description,\n            proposal.votingEnds,\n            proposal.proposer,\n            proposal.domain,\n            proposal.forVotes,\n            proposal.againstVotes,\n            proposal.executed\n        );\n    }\n}",
  "sourcePath": "/home/runner/workspace/contracts/XAOGovernance.sol",
  "compiler": {
    "name": "solc",
    "version": "0.8.19+commit.7dd6d404.Emscripten.clang"
  },
  "schemaVersion": "3.4.16",
  "updatedAt": "2025-03-01T00:09:29.083Z",
  "networkType": "ethereum",
  "devdoc": {
    "author": "XAO Protocol Team",
    "details": "Implements role-based access control and proposal management with domain-specific voting",
    "events": {
      "RoleAdminChanged(bytes32,bytes32,bytes32)": {
        "details": "Emitted when `newAdminRole` is set as ``role``'s admin role, replacing `previousAdminRole` `DEFAULT_ADMIN_ROLE` is the starting admin for all roles, despite {RoleAdminChanged} not being emitted signaling this. _Available since v3.1._"
      },
      "RoleGranted(bytes32,address,address)": {
        "details": "Emitted when `account` is granted `role`. `sender` is the account that originated the contract call, an admin role bearer except when using {AccessControl-_setupRole}."
      },
      "RoleRevoked(bytes32,address,address)": {
        "details": "Emitted when `account` is revoked `role`. `sender` is the account that originated the contract call:   - if using `revokeRole`, it is the admin role bearer   - if using `renounceRole`, it is the role bearer (i.e. `account`)"
      }
    },
    "kind": "dev",
    "methods": {
      "castVote(uint256,bool)": {
        "details": "Takes into account user's voting power and domain expertise",
        "params": {
          "proposalId": "ID of the proposal",
          "support": "Whether the vote is in favor or against"
        }
      },
      "constructor": {
        "details": "Sets up initial roles and connects to XAO token and staking contracts",
        "params": {
          "_xaoStaking": "Address of the XAO staking contract",
          "_xaoToken": "Address of the XAO token contract"
        }
      },
      "createProposal(string,uint8)": {
        "details": "Requires proposer to have sufficient stake and appropriate role",
        "params": {
          "description": "Description of the proposal",
          "domain": "Domain category of the proposal"
        },
        "returns": {
          "_0": "ID of the created proposal"
        }
      },
      "executeProposal(uint256)": {
        "details": "Can only be called by executor role after voting period ends",
        "params": {
          "proposalId": "ID of the proposal to execute"
        }
      },
      "getProposal(uint256)": {
        "params": {
          "proposalId": "ID of the proposal"
        },
        "returns": {
          "againstVotes": "Total votes against",
          "description": "Description of the proposal",
          "domain": "Domain category of the proposal",
          "executed": "Whether the proposal has been executed",
          "forVotes": "Total votes in favor",
          "proposer": "Address of the proposer",
          "votingEnds": "End time of voting period"
        }
      },
      "getRoleAdmin(bytes32)": {
        "details": "Returns the admin role that controls `role`. See {grantRole} and {revokeRole}. To change a role's admin, use {_setRoleAdmin}."
      },
      "grantRole(bytes32,address)": {
        "details": "Grants `role` to `account`. If `account` had not been already granted `role`, emits a {RoleGranted} event. Requirements: - the caller must have ``role``'s admin role. May emit a {RoleGranted} event."
      },
      "hasRole(bytes32,address)": {
        "details": "Returns `true` if `account` has been granted `role`."
      },
      "renounceRole(bytes32,address)": {
        "details": "Revokes `role` from the calling account. Roles are often managed via {grantRole} and {revokeRole}: this function's purpose is to provide a mechanism for accounts to lose their privileges if they are compromised (such as when a trusted device is misplaced). If the calling account had been revoked `role`, emits a {RoleRevoked} event. Requirements: - the caller must be `account`. May emit a {RoleRevoked} event."
      },
      "revokeRole(bytes32,address)": {
        "details": "Revokes `role` from `account`. If `account` had been granted `role`, emits a {RoleRevoked} event. Requirements: - the caller must have ``role``'s admin role. May emit a {RoleRevoked} event."
      },
      "supportsInterface(bytes4)": {
        "details": "See {IERC165-supportsInterface}."
      },
      "updateDomainReputation(address,uint8,uint256)": {
        "details": "Can only be called by admin role",
        "params": {
          "amount": "New reputation amount",
          "domain": "Domain to update reputation for",
          "user": "Address of the user"
        }
      }
    },
    "title": "XAO Governance Contract",
    "version": 1
  },
  "userdoc": {
    "events": {
      "ProposalCreated(uint256,address,uint8)": {
        "notice": "Emitted when a new proposal is created"
      },
      "ProposalExecuted(uint256)": {
        "notice": "Emitted when a proposal is executed"
      },
      "ReputationUpdated(address,uint8,uint256)": {
        "notice": "Emitted when a user's reputation in a domain is updated"
      },
      "VoteCast(uint256,address,bool,uint256)": {
        "notice": "Emitted when a vote is cast on a proposal"
      }
    },
    "kind": "user",
    "methods": {
      "ADMIN_ROLE()": {
        "notice": "Role definitions for access control"
      },
      "DOMAIN_BONUS_MULTIPLIER()": {
        "notice": "Multiplier for domain expertise in voting power"
      },
      "MIN_PROPOSAL_STAKE()": {
        "notice": "Minimum stake required to create a proposal"
      },
      "VOTING_PERIOD()": {
        "notice": "Duration of the voting period"
      },
      "castVote(uint256,bool)": {
        "notice": "Casts a vote on a proposal"
      },
      "constructor": {
        "notice": "Initializes the governance contract"
      },
      "createProposal(string,uint8)": {
        "notice": "Creates a new proposal"
      },
      "domainReputation(address,uint8)": {
        "notice": "Mapping of user addresses to their domain-specific reputation"
      },
      "executeProposal(uint256)": {
        "notice": "Executes a successful proposal"
      },
      "getProposal(uint256)": {
        "notice": "Retrieves details of a specific proposal"
      },
      "proposalCount()": {
        "notice": "Total number of proposals created"
      },
      "proposals(uint256)": {
        "notice": "Mapping of proposal IDs to proposal details"
      },
      "updateDomainReputation(address,uint8,uint256)": {
        "notice": "Updates a user's reputation in a specific domain"
      },
      "xaoStaking()": {
        "notice": "The XAO staking contract reference"
      },
      "xaoToken()": {
        "notice": "The XAO token contract reference"
      }
    },
    "notice": "This contract manages the decentralized governance of the XAO protocol",
    "version": 1
  }
}