{
  "contractName": "XAOStaking",
  "abi": [
    {
      "inputs": [
        {
          "internalType": "address",
          "name": "_xaoToken",
          "type": "address"
        }
      ],
      "stateMutability": "nonpayable",
      "type": "constructor"
    },
    {
      "anonymous": false,
      "inputs": [
        {
          "indexed": true,
          "internalType": "address",
          "name": "previousOwner",
          "type": "address"
        },
        {
          "indexed": true,
          "internalType": "address",
          "name": "newOwner",
          "type": "address"
        }
      ],
      "name": "OwnershipTransferred",
      "type": "event"
    },
    {
      "anonymous": false,
      "inputs": [
        {
          "indexed": false,
          "internalType": "address",
          "name": "account",
          "type": "address"
        }
      ],
      "name": "Paused",
      "type": "event"
    },
    {
      "anonymous": false,
      "inputs": [
        {
          "indexed": true,
          "internalType": "address",
          "name": "user",
          "type": "address"
        },
        {
          "indexed": false,
          "internalType": "uint256",
          "name": "newReputation",
          "type": "uint256"
        }
      ],
      "name": "ReputationUpdated",
      "type": "event"
    },
    {
      "anonymous": false,
      "inputs": [
        {
          "indexed": false,
          "internalType": "uint256",
          "name": "newRate",
          "type": "uint256"
        }
      ],
      "name": "RewardRateUpdated",
      "type": "event"
    },
    {
      "anonymous": false,
      "inputs": [
        {
          "indexed": true,
          "internalType": "address",
          "name": "user",
          "type": "address"
        },
        {
          "indexed": false,
          "internalType": "uint256",
          "name": "amount",
          "type": "uint256"
        }
      ],
      "name": "RewardsClaimed",
      "type": "event"
    },
    {
      "anonymous": false,
      "inputs": [
        {
          "indexed": true,
          "internalType": "address",
          "name": "user",
          "type": "address"
        },
        {
          "indexed": false,
          "internalType": "uint256",
          "name": "amount",
          "type": "uint256"
        }
      ],
      "name": "Staked",
      "type": "event"
    },
    {
      "anonymous": false,
      "inputs": [
        {
          "indexed": false,
          "internalType": "address",
          "name": "account",
          "type": "address"
        }
      ],
      "name": "Unpaused",
      "type": "event"
    },
    {
      "anonymous": false,
      "inputs": [
        {
          "indexed": true,
          "internalType": "address",
          "name": "user",
          "type": "address"
        },
        {
          "indexed": false,
          "internalType": "uint256",
          "name": "amount",
          "type": "uint256"
        },
        {
          "indexed": false,
          "internalType": "uint256",
          "name": "penalty",
          "type": "uint256"
        }
      ],
      "name": "Withdrawn",
      "type": "event"
    },
    {
      "inputs": [],
      "name": "EARLY_WITHDRAWAL_PENALTY",
      "outputs": [
        {
          "internalType": "uint256",
          "name": "",
          "type": "uint256"
        }
      ],
      "stateMutability": "view",
      "type": "function",
      "constant": true
    },
    {
      "inputs": [],
      "name": "MIN_STAKE_DURATION",
      "outputs": [
        {
          "internalType": "uint256",
          "name": "",
          "type": "uint256"
        }
      ],
      "stateMutability": "view",
      "type": "function",
      "constant": true
    },
    {
      "inputs": [],
      "name": "REPUTATION_MULTIPLIER",
      "outputs": [
        {
          "internalType": "uint256",
          "name": "",
          "type": "uint256"
        }
      ],
      "stateMutability": "view",
      "type": "function",
      "constant": true
    },
    {
      "inputs": [],
      "name": "owner",
      "outputs": [
        {
          "internalType": "address",
          "name": "",
          "type": "address"
        }
      ],
      "stateMutability": "view",
      "type": "function",
      "constant": true
    },
    {
      "inputs": [],
      "name": "paused",
      "outputs": [
        {
          "internalType": "bool",
          "name": "",
          "type": "bool"
        }
      ],
      "stateMutability": "view",
      "type": "function",
      "constant": true
    },
    {
      "inputs": [],
      "name": "renounceOwnership",
      "outputs": [],
      "stateMutability": "nonpayable",
      "type": "function"
    },
    {
      "inputs": [],
      "name": "rewardRate",
      "outputs": [
        {
          "internalType": "uint256",
          "name": "",
          "type": "uint256"
        }
      ],
      "stateMutability": "view",
      "type": "function",
      "constant": true
    },
    {
      "inputs": [
        {
          "internalType": "address",
          "name": "",
          "type": "address"
        }
      ],
      "name": "stakes",
      "outputs": [
        {
          "internalType": "uint256",
          "name": "amount",
          "type": "uint256"
        },
        {
          "internalType": "uint256",
          "name": "timestamp",
          "type": "uint256"
        },
        {
          "internalType": "uint256",
          "name": "reputation",
          "type": "uint256"
        },
        {
          "internalType": "uint256",
          "name": "lastRewardClaim",
          "type": "uint256"
        }
      ],
      "stateMutability": "view",
      "type": "function",
      "constant": true
    },
    {
      "inputs": [],
      "name": "totalStaked",
      "outputs": [
        {
          "internalType": "uint256",
          "name": "",
          "type": "uint256"
        }
      ],
      "stateMutability": "view",
      "type": "function",
      "constant": true
    },
    {
      "inputs": [
        {
          "internalType": "address",
          "name": "newOwner",
          "type": "address"
        }
      ],
      "name": "transferOwnership",
      "outputs": [],
      "stateMutability": "nonpayable",
      "type": "function"
    },
    {
      "inputs": [],
      "name": "xaoToken",
      "outputs": [
        {
          "internalType": "contract IERC20",
          "name": "",
          "type": "address"
        }
      ],
      "stateMutability": "view",
      "type": "function",
      "constant": true
    },
    {
      "inputs": [],
      "name": "pause",
      "outputs": [],
      "stateMutability": "nonpayable",
      "type": "function"
    },
    {
      "inputs": [],
      "name": "unpause",
      "outputs": [],
      "stateMutability": "nonpayable",
      "type": "function"
    },
    {
      "inputs": [
        {
          "internalType": "uint256",
          "name": "amount",
          "type": "uint256"
        }
      ],
      "name": "stake",
      "outputs": [],
      "stateMutability": "nonpayable",
      "type": "function"
    },
    {
      "inputs": [
        {
          "internalType": "uint256",
          "name": "amount",
          "type": "uint256"
        }
      ],
      "name": "withdraw",
      "outputs": [],
      "stateMutability": "nonpayable",
      "type": "function"
    },
    {
      "inputs": [
        {
          "internalType": "address",
          "name": "user",
          "type": "address"
        }
      ],
      "name": "calculateRewards",
      "outputs": [
        {
          "internalType": "uint256",
          "name": "",
          "type": "uint256"
        }
      ],
      "stateMutability": "view",
      "type": "function",
      "constant": true
    },
    {
      "inputs": [],
      "name": "claimRewards",
      "outputs": [],
      "stateMutability": "nonpayable",
      "type": "function"
    },
    {
      "inputs": [
        {
          "internalType": "uint256",
          "name": "newRate",
          "type": "uint256"
        }
      ],
      "name": "updateRewardRate",
      "outputs": [],
      "stateMutability": "nonpayable",
      "type": "function"
    },
    {
      "inputs": [
        {
          "internalType": "address",
          "name": "user",
          "type": "address"
        }
      ],
      "name": "getVotingPower",
      "outputs": [
        {
          "internalType": "uint256",
          "name": "",
          "type": "uint256"
        }
      ],
      "stateMutability": "view",
      "type": "function",
      "constant": true
    },
    {
      "inputs": [
        {
          "internalType": "address",
          "name": "user",
          "type": "address"
        }
      ],
      "name": "getStakeInfo",
      "outputs": [
        {
          "internalType": "uint256",
          "name": "amount",
          "type": "uint256"
        },
        {
          "internalType": "uint256",
          "name": "timestamp",
          "type": "uint256"
        },
        {
          "internalType": "uint256",
          "name": "reputation",
          "type": "uint256"
        }
      ],
      "stateMutability": "view",
      "type": "function",
      "constant": true
    }
  ],
  "bytecode": "0x60803461010d57601f610fd338819003918201601f19168301916001600160401b038311848410176101125780849260209460405283398101031261010d57516001600160a01b038082169182900361010d57600160005560015460405191339082167f8be0079c531659141344cd1fd0a4f28419497f9722a3daafe3b4186f6b6457e0600080a36001600160a81b0319163360ff60a01b1916176001556005805581156100cb5750600280546001600160a01b031916919091179055604051610eaa90816101298239f35b62461bcd60e51b815260206004820152601560248201527f496e76616c696420746f6b656e206164647265737300000000000000000000006044820152606490fd5b600080fd5b634e487b7160e01b600052604160045260246000fdfe608060408181526004908136101561001657600080fd5b600092833560e01c90816316934fc414610b2b575080632e1a7d4d146108b1578063372500ab146107525780633f4ba83a146106b65780635c975abb1461068f57806364ab867514610657578063715018a6146105f75780637b0a47ee146105d85780637cb008c0146105af578063817b1cd2146105915780638456cb5914610530578063846686c0146105145780638da5cb5b146104eb5780639ef3a26114610462578063a694fc3a146102c3578063b918ee25146102a7578063bb4d44361461026a578063c3453153146101f7578063e0c570ba146101d55763f2fde38b1461010057600080fd5b346101d15760203660031901126101d1576001600160a01b038235818116939192908490036101cd57610131610b87565b831561017b575050600154826bffffffffffffffffffffffff60a01b821617600155167f8be0079c531659141344cd1fd0a4f28419497f9722a3daafe3b4186f6b6457e08380a380f35b906020608492519162461bcd60e51b8352820152602660248201527f4f776e61626c653a206e6577206f776e657220697320746865207a65726f206160448201526564647265737360d01b6064820152fd5b8480fd5b8280fd5b8382346101f357816003193601126101f357602090516276a7008152f35b5080fd5b5090346101d15760203660031901126101d157356001600160a01b038116908190036101d1578282916060945260036020522081519161023683610c26565b8154928381526001830154908160208201528560036002860154958686850152015491015281519384526020840152820152f35b5090346101d15760203660031901126101d157356001600160a01b038116908190036101d157818360029260209552600385522001549051908152f35b8382346101f357816003193601126101f35760209051600a8152f35b509190346101f3576020806003193601126101d1578135916102e3610cd5565b6102eb610bdf565b8215610430579383948260018060a01b036002541660648451809881936323b872dd60e01b835233878401523060248401528960448401525af1948515610426577f9e71bc8eea02a63969f509818f2dafb9254532904319f9dbda79b67bd34a5f3d94956103609188916103f9575b50610c97565b3386526003835281862054156103b357338652600383526103848583882054610d2b565b338752600384528287205561039833610df4565b6103a3858254610d2b565b9055519283523392a26001815580f35b81516103be81610c26565b85815260038482014281528483018981526060840191428352338b52838852868b209451855551600185015551600284015551910155610398565b6104199150853d871161041f575b6104118183610c58565b810190610c7a565b3861035a565b503d610407565b82513d88823e3d90fd5b60649185519162461bcd60e51b8352820152600e60248201526d043616e6e6f74207374616b6520360941b6044820152fd5b50346101d15760203660031901126101d15781359161047f610b87565b601483116104b95750816020917f41d466ebd06fb97e7786086ac8b69b7eb7da798592036251291d34e9791cde019360055551908152a180f35b6020606492519162461bcd60e51b8352820152600d60248201526c0a4c2e8ca40e8dede40d0d2ced609b1b6044820152fd5b8382346101f357816003193601126101f35760015490516001600160a01b039091168152602090f35b8382346101f357816003193601126101f3576020905160648152f35b8382346101f357816003193601126101f35760207f62e78cea01bee320cd4e420270b5ea74000d11b0c9f74754ebdbfc544b05a2589161056e610b87565b610576610bdf565b6001805460ff60a01b1916600160a01b17905551338152a180f35b5090346101d157826003193601126101d15760209250549051908152f35b8382346101f357816003193601126101f35760025490516001600160a01b039091168152602090f35b8382346101f357816003193601126101f3576020906005549051908152f35b8334610654578060031936011261065457610610610b87565b600180546001600160a01b0319811690915581906001600160a01b03167f8be0079c531659141344cd1fd0a4f28419497f9722a3daafe3b4186f6b6457e08280a380f35b80fd5b5090346101d15760203660031901126101d15735916001600160a01b03831683036106545750610688602092610d6e565b9051908152f35b8382346101f357816003193601126101f35760209060ff60015460a01c1690519015158152f35b5090346101d157826003193601126101d1576106d0610b87565b6001549060ff8260a01c1615610718575060ff60a01b1916600155513381527f5db9ee0a495bf2e6ff9c91a7834c1ba4fdd244a5e8aa4e537bd38aeae4b073aa90602090a180f35b606490602084519162461bcd60e51b8352820152601460248201527314185d5cd8589b194e881b9bdd081c185d5cd95960621b6044820152fd5b5090346101d157826003193601126101d15761076c610cd5565b610774610bdf565b61077d33610d6e565b91821561087857338085526003602081815283872042920191909155600254835163a9059cbb60e01b8152858101938452838301879052919492859183918290036040019082908a906001600160a01b03165af190811561086e578691610851575b50156108175750907ffc30cddea38e2bf4d6ea7d3f9ed3b6ad7f176419f4963bd81318067a4aee73fe91519283523392a26001815580f35b82606492519162461bcd60e51b8352820152601660248201527514995dd85c99081d1c985b9cd9995c8819985a5b195960521b6044820152fd5b6108689150843d861161041f576104118183610c58565b386107df565b83513d88823e3d90fd5b906020606492519162461bcd60e51b835282015260136024820152724e6f207265776172647320746f20636c61696d60681b6044820152fd5b508290346101f357602090816003193601126101d1578335916108d2610cd5565b6108da610bdf565b3384526003815281842090815495848710610af557859260018101546276a7008101809111610ae2579087914210610aaf575b6109218761091b8782610d4e565b9a610d4e565b815561092e878454610d4e565b8355805415610aa657505061094233610df4565b826109ed575b600254845163a9059cbb60e01b8152339281019283526020830198909852959695829187916001600160a01b03169082908a90829060400103925af194851561086e577f92ccf450a286a957af52509bc1c9939d1a6a481783e142e41e2499f0bb66ebc694956109be9188916109d05750610c97565b82519485528401523392a26001815580f35b6109e79150833d851161041f576104118183610c58565b8861035a565b600254600154855163a9059cbb60e01b81526001600160a01b03918216848201908152602081018790529092859284928390036040019183918c91165af1908115610a9c578791610a7f575b506109485760649184519162461bcd60e51b8352820152601760248201527f50656e616c7479207472616e73666572206661696c65640000000000000000006044820152fd5b610a969150833d851161041f576104118183610c58565b88610a39565b85513d89823e3d90fd5b60020155610942565b935050600a8502858104600a1486151715610acf5760648791049361090d565b634e487b7160e01b875260118252602487fd5b634e487b7160e01b885260118352602488fd5b60649184519162461bcd60e51b83528201526012602482015271496e73756666696369656e74207374616b6560701b6044820152fd5b92905034610b83576020366003190112610b8357356001600160a01b03811690819003610b83578382916080955260036020522080549160018201546003600284015493015493855260208501528301526060820152f35b8380fd5b6001546001600160a01b03163303610b9b57565b606460405162461bcd60e51b815260206004820152602060248201527f4f776e61626c653a2063616c6c6572206973206e6f7420746865206f776e65726044820152fd5b60ff60015460a01c16610bee57565b60405162461bcd60e51b815260206004820152601060248201526f14185d5cd8589b194e881c185d5cd95960821b6044820152606490fd5b6080810190811067ffffffffffffffff821117610c4257604052565b634e487b7160e01b600052604160045260246000fd5b90601f8019910116810190811067ffffffffffffffff821117610c4257604052565b90816020910312610c9257518015158103610c925790565b600080fd5b15610c9e57565b60405162461bcd60e51b815260206004820152600f60248201526e151c985b9cd9995c8819985a5b1959608a1b6044820152606490fd5b600260005414610ce6576002600055565b60405162461bcd60e51b815260206004820152601f60248201527f5265656e7472616e637947756172643a207265656e7472616e742063616c6c006044820152606490fd5b91908201809211610d3857565b634e487b7160e01b600052601160045260246000fd5b91908203918211610d3857565b81810292918115918404141715610d3857565b60018060a01b03166000526003602052604060002060405190610d9082610c26565b6003815491828452600181015460208501526002810154604085015201549081606084015215610ded57610dc86276a7009142610d4e565b04908115610ded57606491610de4610de9925160055490610d5b565b610d5b565b0490565b5050600090565b60018060a01b0316806000526003602052604060002062015180610e26610e1f600184015442610d4e565b8354610d5b565b0490606482029180830460641490151715610d385760026020916127107ffc577563f1b9a0461e24abef1e1fcc0d33d3d881f20b5df6dda59de4aae2c82194049182910155604051908152a256fea2646970667358221220d8479d0c28b9a93b8dcc34cf5532ac73938d0c3df16fae851d79a890c2126f4b64736f6c63430008130033",
  "immutableReferences": {},
  "source": "// SPDX-License-Identifier: MIT\npragma solidity ^0.8.19;\n\nimport \"@openzeppelin/contracts/token/ERC20/IERC20.sol\";\nimport \"@openzeppelin/contracts/security/ReentrancyGuard.sol\";\nimport \"@openzeppelin/contracts/security/Pausable.sol\";\nimport \"@openzeppelin/contracts/access/Ownable.sol\";\nimport \"@openzeppelin/contracts/utils/math/SafeMath.sol\";\n\n/// @title XAO Staking Contract\n/// @author XAO Protocol Team\n/// @notice This contract manages the staking mechanism for XAO tokens\n/// @dev Implements staking with time-based reputation, rewards, and early withdrawal penalties\ncontract XAOStaking is ReentrancyGuard, Ownable, Pausable {\n    using SafeMath for uint256;\n\n    /// @notice Interface for the XAO token contract\n    IERC20 public xaoToken;\n\n    /// @notice Structure to track individual stake information\n    /// @dev Contains stake amount, timestamp, reputation, and reward claim history\n    struct Stake {\n        uint256 amount;        /// @dev Amount of tokens staked\n        uint256 timestamp;     /// @dev Time when the stake was created\n        uint256 reputation;    /// @dev Reputation points earned\n        uint256 lastRewardClaim; /// @dev Timestamp of last reward claim\n    }\n\n    /// @notice Mapping of addresses to their stake information\n    mapping(address => Stake) public stakes;\n\n    /// @notice Total amount of tokens staked in the contract\n    uint256 public totalStaked;\n\n    /// @notice Minimum duration required for staking without penalty\n    /// @dev Set to one quarter (90 days)\n    uint256 public constant MIN_STAKE_DURATION = 90 days;\n\n    /// @notice Base multiplier for calculating reputation\n    uint256 public constant REPUTATION_MULTIPLIER = 100;\n\n    /// @notice Penalty percentage for early withdrawal (10%)\n    uint256 public constant EARLY_WITHDRAWAL_PENALTY = 10;\n\n    /// @notice Quarterly reward rate (5%)\n    uint256 public rewardRate = 5;\n\n    /// @notice Emitted when tokens are staked\n    /// @param user Address of the staker\n    /// @param amount Amount of tokens staked\n    event Staked(address indexed user, uint256 amount);\n\n    /// @notice Emitted when tokens are withdrawn\n    /// @param user Address of the withdrawer\n    /// @param amount Amount withdrawn\n    /// @param penalty Amount penalized for early withdrawal\n    event Withdrawn(address indexed user, uint256 amount, uint256 penalty);\n\n    /// @notice Emitted when reputation is updated\n    /// @param user Address of the user\n    /// @param newReputation New reputation score\n    event ReputationUpdated(address indexed user, uint256 newReputation);\n\n    /// @notice Emitted when rewards are claimed\n    /// @param user Address of the claimer\n    /// @param amount Amount of rewards claimed\n    event RewardsClaimed(address indexed user, uint256 amount);\n\n    /// @notice Emitted when reward rate is updated\n    /// @param newRate New reward rate\n    event RewardRateUpdated(uint256 newRate);\n\n    /// @notice Initializes the staking contract\n    /// @dev Sets up the XAO token interface\n    /// @param _xaoToken Address of the XAO token contract\n    constructor(address _xaoToken) {\n        require(_xaoToken != address(0), \"Invalid token address\");\n        xaoToken = IERC20(_xaoToken);\n    }\n\n    /// @notice Pauses all staking operations\n    /// @dev Can only be called by the contract owner\n    function pause() external onlyOwner {\n        _pause();\n    }\n\n    /// @notice Resumes all staking operations\n    /// @dev Can only be called by the contract owner\n    function unpause() external onlyOwner {\n        _unpause();\n    }\n\n    /// @notice Stakes tokens in the contract\n    /// @dev Transfers tokens from user to contract and updates stake info\n    /// @param amount Amount of tokens to stake\n    function stake(uint256 amount) external nonReentrant whenNotPaused {\n        require(amount > 0, \"Cannot stake 0\");\n        require(xaoToken.transferFrom(msg.sender, address(this), amount), \"Transfer failed\");\n\n        if (stakes[msg.sender].amount > 0) {\n            stakes[msg.sender].amount = stakes[msg.sender].amount.add(amount);\n            _updateReputation(msg.sender);\n        } else {\n            stakes[msg.sender] = Stake({\n                amount: amount,\n                timestamp: block.timestamp,\n                reputation: 0,\n                lastRewardClaim: block.timestamp\n            });\n        }\n\n        totalStaked = totalStaked.add(amount);\n        emit Staked(msg.sender, amount);\n    }\n\n    /// @notice Withdraws staked tokens\n    /// @dev Applies early withdrawal penalty if applicable\n    /// @param amount Amount of tokens to withdraw\n    function withdraw(uint256 amount) external nonReentrant whenNotPaused {\n        Stake storage userStake = stakes[msg.sender];\n        require(userStake.amount >= amount, \"Insufficient stake\");\n\n        uint256 penalty = 0;\n        if (block.timestamp < userStake.timestamp.add(MIN_STAKE_DURATION)) {\n            penalty = amount.mul(EARLY_WITHDRAWAL_PENALTY).div(100);\n        }\n\n        uint256 withdrawAmount = amount.sub(penalty);\n        userStake.amount = userStake.amount.sub(amount);\n        totalStaked = totalStaked.sub(amount);\n\n        if (userStake.amount > 0) {\n            _updateReputation(msg.sender);\n        } else {\n            userStake.reputation = 0;\n        }\n\n        if (penalty > 0) {\n            require(xaoToken.transfer(owner(), penalty), \"Penalty transfer failed\");\n        }\n\n        require(xaoToken.transfer(msg.sender, withdrawAmount), \"Transfer failed\");\n        emit Withdrawn(msg.sender, amount, penalty);\n    }\n\n    /// @notice Calculates rewards for a user\n    /// @dev Based on stake amount and time elapsed\n    /// @param user Address of the user\n    /// @return Amount of rewards available\n    function calculateRewards(address user) public view returns (uint256) {\n        Stake memory userStake = stakes[user];\n        if (userStake.amount == 0) return 0;\n\n        uint256 timeElapsed = block.timestamp.sub(userStake.lastRewardClaim);\n        uint256 fullCycles = timeElapsed.div(MIN_STAKE_DURATION);\n\n        if (fullCycles == 0) return 0;\n\n        return userStake.amount\n            .mul(rewardRate)\n            .mul(fullCycles)\n            .div(100);\n    }\n\n    /// @notice Claims available rewards\n    /// @dev Transfers calculated rewards to user\n    function claimRewards() external nonReentrant whenNotPaused {\n        uint256 rewards = calculateRewards(msg.sender);\n        require(rewards > 0, \"No rewards to claim\");\n\n        stakes[msg.sender].lastRewardClaim = block.timestamp;\n        require(xaoToken.transfer(msg.sender, rewards), \"Reward transfer failed\");\n\n        emit RewardsClaimed(msg.sender, rewards);\n    }\n\n    /// @notice Updates the reward rate\n    /// @dev Can only be called by the contract owner\n    /// @param newRate New reward rate to set\n    function updateRewardRate(uint256 newRate) external onlyOwner {\n        require(newRate <= 20, \"Rate too high\"); // Max 20% quarterly\n        rewardRate = newRate;\n        emit RewardRateUpdated(newRate);\n    }\n\n    /// @notice Updates user's reputation based on stake amount and duration\n    /// @dev Internal function to calculate and update reputation\n    /// @param user Address of the user\n    function _updateReputation(address user) internal {\n        Stake storage userStake = stakes[user];\n        uint256 stakeDuration = block.timestamp.sub(userStake.timestamp);\n        uint256 newReputation = userStake.amount\n            .mul(stakeDuration)\n            .div(1 days)\n            .mul(REPUTATION_MULTIPLIER)\n            .div(10000);\n\n        userStake.reputation = newReputation;\n        emit ReputationUpdated(user, newReputation);\n    }\n\n    /// @notice Gets the voting power of a user\n    /// @dev Based on user's reputation\n    /// @param user Address of the user\n    /// @return User's voting power\n    function getVotingPower(address user) external view returns (uint256) {\n        return stakes[user].reputation;\n    }\n\n    /// @notice Gets detailed stake information for a user\n    /// @param user Address of the user\n    /// @return amount Amount staked\n    /// @return timestamp Time of stake\n    /// @return reputation Current reputation score\n    function getStakeInfo(address user) external view returns (\n        uint256 amount,\n        uint256 timestamp,\n        uint256 reputation\n    ) {\n        Stake memory userStake = stakes[user];\n        return (userStake.amount, userStake.timestamp, userStake.reputation);\n    }\n}",
  "sourcePath": "/home/runner/workspace/contracts/XAOStaking.sol",
  "compiler": {
    "name": "solc",
    "version": "0.8.19+commit.7dd6d404.Emscripten.clang"
  },
  "schemaVersion": "3.4.16",
  "updatedAt": "2025-03-01T00:09:29.075Z",
  "networkType": "ethereum",
  "devdoc": {
    "author": "XAO Protocol Team",
    "details": "Implements staking with time-based reputation, rewards, and early withdrawal penalties",
    "events": {
      "Paused(address)": {
        "details": "Emitted when the pause is triggered by `account`."
      },
      "ReputationUpdated(address,uint256)": {
        "params": {
          "newReputation": "New reputation score",
          "user": "Address of the user"
        }
      },
      "RewardRateUpdated(uint256)": {
        "params": {
          "newRate": "New reward rate"
        }
      },
      "RewardsClaimed(address,uint256)": {
        "params": {
          "amount": "Amount of rewards claimed",
          "user": "Address of the claimer"
        }
      },
      "Staked(address,uint256)": {
        "params": {
          "amount": "Amount of tokens staked",
          "user": "Address of the staker"
        }
      },
      "Unpaused(address)": {
        "details": "Emitted when the pause is lifted by `account`."
      },
      "Withdrawn(address,uint256,uint256)": {
        "params": {
          "amount": "Amount withdrawn",
          "penalty": "Amount penalized for early withdrawal",
          "user": "Address of the withdrawer"
        }
      }
    },
    "kind": "dev",
    "methods": {
      "calculateRewards(address)": {
        "details": "Based on stake amount and time elapsed",
        "params": {
          "user": "Address of the user"
        },
        "returns": {
          "_0": "Amount of rewards available"
        }
      },
      "claimRewards()": {
        "details": "Transfers calculated rewards to user"
      },
      "constructor": {
        "details": "Sets up the XAO token interface",
        "params": {
          "_xaoToken": "Address of the XAO token contract"
        }
      },
      "getStakeInfo(address)": {
        "params": {
          "user": "Address of the user"
        },
        "returns": {
          "amount": "Amount staked",
          "reputation": "Current reputation score",
          "timestamp": "Time of stake"
        }
      },
      "getVotingPower(address)": {
        "details": "Based on user's reputation",
        "params": {
          "user": "Address of the user"
        },
        "returns": {
          "_0": "User's voting power"
        }
      },
      "owner()": {
        "details": "Returns the address of the current owner."
      },
      "pause()": {
        "details": "Can only be called by the contract owner"
      },
      "paused()": {
        "details": "Returns true if the contract is paused, and false otherwise."
      },
      "renounceOwnership()": {
        "details": "Leaves the contract without owner. It will not be possible to call `onlyOwner` functions. Can only be called by the current owner. NOTE: Renouncing ownership will leave the contract without an owner, thereby disabling any functionality that is only available to the owner."
      },
      "stake(uint256)": {
        "details": "Transfers tokens from user to contract and updates stake info",
        "params": {
          "amount": "Amount of tokens to stake"
        }
      },
      "transferOwnership(address)": {
        "details": "Transfers ownership of the contract to a new account (`newOwner`). Can only be called by the current owner."
      },
      "unpause()": {
        "details": "Can only be called by the contract owner"
      },
      "updateRewardRate(uint256)": {
        "details": "Can only be called by the contract owner",
        "params": {
          "newRate": "New reward rate to set"
        }
      },
      "withdraw(uint256)": {
        "details": "Applies early withdrawal penalty if applicable",
        "params": {
          "amount": "Amount of tokens to withdraw"
        }
      }
    },
    "stateVariables": {
      "MIN_STAKE_DURATION": {
        "details": "Set to one quarter (90 days)"
      }
    },
    "title": "XAO Staking Contract",
    "version": 1
  },
  "userdoc": {
    "events": {
      "ReputationUpdated(address,uint256)": {
        "notice": "Emitted when reputation is updated"
      },
      "RewardRateUpdated(uint256)": {
        "notice": "Emitted when reward rate is updated"
      },
      "RewardsClaimed(address,uint256)": {
        "notice": "Emitted when rewards are claimed"
      },
      "Staked(address,uint256)": {
        "notice": "Emitted when tokens are staked"
      },
      "Withdrawn(address,uint256,uint256)": {
        "notice": "Emitted when tokens are withdrawn"
      }
    },
    "kind": "user",
    "methods": {
      "EARLY_WITHDRAWAL_PENALTY()": {
        "notice": "Penalty percentage for early withdrawal (10%)"
      },
      "MIN_STAKE_DURATION()": {
        "notice": "Minimum duration required for staking without penalty"
      },
      "REPUTATION_MULTIPLIER()": {
        "notice": "Base multiplier for calculating reputation"
      },
      "calculateRewards(address)": {
        "notice": "Calculates rewards for a user"
      },
      "claimRewards()": {
        "notice": "Claims available rewards"
      },
      "constructor": {
        "notice": "Initializes the staking contract"
      },
      "getStakeInfo(address)": {
        "notice": "Gets detailed stake information for a user"
      },
      "getVotingPower(address)": {
        "notice": "Gets the voting power of a user"
      },
      "pause()": {
        "notice": "Pauses all staking operations"
      },
      "rewardRate()": {
        "notice": "Quarterly reward rate (5%)"
      },
      "stake(uint256)": {
        "notice": "Stakes tokens in the contract"
      },
      "stakes(address)": {
        "notice": "Mapping of addresses to their stake information"
      },
      "totalStaked()": {
        "notice": "Total amount of tokens staked in the contract"
      },
      "unpause()": {
        "notice": "Resumes all staking operations"
      },
      "updateRewardRate(uint256)": {
        "notice": "Updates the reward rate"
      },
      "withdraw(uint256)": {
        "notice": "Withdraws staked tokens"
      },
      "xaoToken()": {
        "notice": "Interface for the XAO token contract"
      }
    },
    "notice": "This contract manages the staking mechanism for XAO tokens",
    "version": 1
  }
}