{
  "contractName": "XAOToken",
  "abi": [
    {
      "inputs": [],
      "stateMutability": "nonpayable",
      "type": "constructor"
    },
    {
      "inputs": [],
      "name": "InvalidShortString",
      "type": "error"
    },
    {
      "inputs": [
        {
          "internalType": "string",
          "name": "str",
          "type": "string"
        }
      ],
      "name": "StringTooLong",
      "type": "error"
    },
    {
      "anonymous": false,
      "inputs": [
        {
          "indexed": true,
          "internalType": "address",
          "name": "owner",
          "type": "address"
        },
        {
          "indexed": true,
          "internalType": "address",
          "name": "spender",
          "type": "address"
        },
        {
          "indexed": false,
          "internalType": "uint256",
          "name": "value",
          "type": "uint256"
        }
      ],
      "name": "Approval",
      "type": "event"
    },
    {
      "anonymous": false,
      "inputs": [],
      "name": "EIP712DomainChanged",
      "type": "event"
    },
    {
      "anonymous": false,
      "inputs": [
        {
          "indexed": true,
          "internalType": "address",
          "name": "previousOwner",
          "type": "address"
        },
        {
          "indexed": true,
          "internalType": "address",
          "name": "newOwner",
          "type": "address"
        }
      ],
      "name": "OwnershipTransferred",
      "type": "event"
    },
    {
      "anonymous": false,
      "inputs": [
        {
          "indexed": false,
          "internalType": "address",
          "name": "account",
          "type": "address"
        }
      ],
      "name": "Paused",
      "type": "event"
    },
    {
      "anonymous": false,
      "inputs": [
        {
          "indexed": true,
          "internalType": "address",
          "name": "member",
          "type": "address"
        },
        {
          "indexed": false,
          "internalType": "uint256",
          "name": "allocation",
          "type": "uint256"
        }
      ],
      "name": "TeamMemberAdded",
      "type": "event"
    },
    {
      "anonymous": false,
      "inputs": [
        {
          "indexed": true,
          "internalType": "address",
          "name": "member",
          "type": "address"
        },
        {
          "indexed": false,
          "internalType": "uint256",
          "name": "amount",
          "type": "uint256"
        }
      ],
      "name": "TeamTokensClaimed",
      "type": "event"
    },
    {
      "anonymous": false,
      "inputs": [
        {
          "indexed": true,
          "internalType": "address",
          "name": "from",
          "type": "address"
        },
        {
          "indexed": true,
          "internalType": "address",
          "name": "to",
          "type": "address"
        },
        {
          "indexed": false,
          "internalType": "uint256",
          "name": "value",
          "type": "uint256"
        }
      ],
      "name": "Transfer",
      "type": "event"
    },
    {
      "anonymous": false,
      "inputs": [
        {
          "indexed": true,
          "internalType": "address",
          "name": "account",
          "type": "address"
        },
        {
          "indexed": false,
          "internalType": "bool",
          "name": "exempt",
          "type": "bool"
        }
      ],
      "name": "TransferDelayExemptionUpdated",
      "type": "event"
    },
    {
      "anonymous": false,
      "inputs": [
        {
          "indexed": false,
          "internalType": "address",
          "name": "account",
          "type": "address"
        }
      ],
      "name": "Unpaused",
      "type": "event"
    },
    {
      "inputs": [],
      "name": "DOMAIN_SEPARATOR",
      "outputs": [
        {
          "internalType": "bytes32",
          "name": "",
          "type": "bytes32"
        }
      ],
      "stateMutability": "view",
      "type": "function",
      "constant": true
    },
    {
      "inputs": [],
      "name": "INITIAL_SUPPLY",
      "outputs": [
        {
          "internalType": "uint256",
          "name": "",
          "type": "uint256"
        }
      ],
      "stateMutability": "view",
      "type": "function",
      "constant": true
    },
    {
      "inputs": [],
      "name": "TEAM_ALLOCATION",
      "outputs": [
        {
          "internalType": "uint256",
          "name": "",
          "type": "uint256"
        }
      ],
      "stateMutability": "view",
      "type": "function",
      "constant": true
    },
    {
      "inputs": [],
      "name": "TRANSFER_DELAY",
      "outputs": [
        {
          "internalType": "uint256",
          "name": "",
          "type": "uint256"
        }
      ],
      "stateMutability": "view",
      "type": "function",
      "constant": true
    },
    {
      "inputs": [],
      "name": "VESTING_CLIFF",
      "outputs": [
        {
          "internalType": "uint256",
          "name": "",
          "type": "uint256"
        }
      ],
      "stateMutability": "view",
      "type": "function",
      "constant": true
    },
    {
      "inputs": [],
      "name": "VESTING_DURATION",
      "outputs": [
        {
          "internalType": "uint256",
          "name": "",
          "type": "uint256"
        }
      ],
      "stateMutability": "view",
      "type": "function",
      "constant": true
    },
    {
      "inputs": [
        {
          "internalType": "address",
          "name": "owner",
          "type": "address"
        },
        {
          "internalType": "address",
          "name": "spender",
          "type": "address"
        }
      ],
      "name": "allowance",
      "outputs": [
        {
          "internalType": "uint256",
          "name": "",
          "type": "uint256"
        }
      ],
      "stateMutability": "view",
      "type": "function",
      "constant": true
    },
    {
      "inputs": [
        {
          "internalType": "address",
          "name": "spender",
          "type": "address"
        },
        {
          "internalType": "uint256",
          "name": "amount",
          "type": "uint256"
        }
      ],
      "name": "approve",
      "outputs": [
        {
          "internalType": "bool",
          "name": "",
          "type": "bool"
        }
      ],
      "stateMutability": "nonpayable",
      "type": "function"
    },
    {
      "inputs": [
        {
          "internalType": "address",
          "name": "account",
          "type": "address"
        }
      ],
      "name": "balanceOf",
      "outputs": [
        {
          "internalType": "uint256",
          "name": "",
          "type": "uint256"
        }
      ],
      "stateMutability": "view",
      "type": "function",
      "constant": true
    },
    {
      "inputs": [],
      "name": "decimals",
      "outputs": [
        {
          "internalType": "uint8",
          "name": "",
          "type": "uint8"
        }
      ],
      "stateMutability": "view",
      "type": "function",
      "constant": true
    },
    {
      "inputs": [
        {
          "internalType": "address",
          "name": "spender",
          "type": "address"
        },
        {
          "internalType": "uint256",
          "name": "subtractedValue",
          "type": "uint256"
        }
      ],
      "name": "decreaseAllowance",
      "outputs": [
        {
          "internalType": "bool",
          "name": "",
          "type": "bool"
        }
      ],
      "stateMutability": "nonpayable",
      "type": "function"
    },
    {
      "inputs": [],
      "name": "eip712Domain",
      "outputs": [
        {
          "internalType": "bytes1",
          "name": "fields",
          "type": "bytes1"
        },
        {
          "internalType": "string",
          "name": "name",
          "type": "string"
        },
        {
          "internalType": "string",
          "name": "version",
          "type": "string"
        },
        {
          "internalType": "uint256",
          "name": "chainId",
          "type": "uint256"
        },
        {
          "internalType": "address",
          "name": "verifyingContract",
          "type": "address"
        },
        {
          "internalType": "bytes32",
          "name": "salt",
          "type": "bytes32"
        },
        {
          "internalType": "uint256[]",
          "name": "extensions",
          "type": "uint256[]"
        }
      ],
      "stateMutability": "view",
      "type": "function",
      "constant": true
    },
    {
      "inputs": [
        {
          "internalType": "address",
          "name": "spender",
          "type": "address"
        },
        {
          "internalType": "uint256",
          "name": "addedValue",
          "type": "uint256"
        }
      ],
      "name": "increaseAllowance",
      "outputs": [
        {
          "internalType": "bool",
          "name": "",
          "type": "bool"
        }
      ],
      "stateMutability": "nonpayable",
      "type": "function"
    },
    {
      "inputs": [
        {
          "internalType": "address",
          "name": "",
          "type": "address"
        }
      ],
      "name": "lastTransferTime",
      "outputs": [
        {
          "internalType": "uint256",
          "name": "",
          "type": "uint256"
        }
      ],
      "stateMutability": "view",
      "type": "function",
      "constant": true
    },
    {
      "inputs": [],
      "name": "name",
      "outputs": [
        {
          "internalType": "string",
          "name": "",
          "type": "string"
        }
      ],
      "stateMutability": "view",
      "type": "function",
      "constant": true
    },
    {
      "inputs": [
        {
          "internalType": "address",
          "name": "owner",
          "type": "address"
        }
      ],
      "name": "nonces",
      "outputs": [
        {
          "internalType": "uint256",
          "name": "",
          "type": "uint256"
        }
      ],
      "stateMutability": "view",
      "type": "function",
      "constant": true
    },
    {
      "inputs": [],
      "name": "owner",
      "outputs": [
        {
          "internalType": "address",
          "name": "",
          "type": "address"
        }
      ],
      "stateMutability": "view",
      "type": "function",
      "constant": true
    },
    {
      "inputs": [],
      "name": "paused",
      "outputs": [
        {
          "internalType": "bool",
          "name": "",
          "type": "bool"
        }
      ],
      "stateMutability": "view",
      "type": "function",
      "constant": true
    },
    {
      "inputs": [
        {
          "internalType": "address",
          "name": "owner",
          "type": "address"
        },
        {
          "internalType": "address",
          "name": "spender",
          "type": "address"
        },
        {
          "internalType": "uint256",
          "name": "value",
          "type": "uint256"
        },
        {
          "internalType": "uint256",
          "name": "deadline",
          "type": "uint256"
        },
        {
          "internalType": "uint8",
          "name": "v",
          "type": "uint8"
        },
        {
          "internalType": "bytes32",
          "name": "r",
          "type": "bytes32"
        },
        {
          "internalType": "bytes32",
          "name": "s",
          "type": "bytes32"
        }
      ],
      "name": "permit",
      "outputs": [],
      "stateMutability": "nonpayable",
      "type": "function"
    },
    {
      "inputs": [],
      "name": "renounceOwnership",
      "outputs": [],
      "stateMutability": "nonpayable",
      "type": "function"
    },
    {
      "inputs": [],
      "name": "symbol",
      "outputs": [
        {
          "internalType": "string",
          "name": "",
          "type": "string"
        }
      ],
      "stateMutability": "view",
      "type": "function",
      "constant": true
    },
    {
      "inputs": [
        {
          "internalType": "address",
          "name": "",
          "type": "address"
        }
      ],
      "name": "teamMembers",
      "outputs": [
        {
          "internalType": "uint256",
          "name": "allocation",
          "type": "uint256"
        },
        {
          "internalType": "uint256",
          "name": "claimed",
          "type": "uint256"
        },
        {
          "internalType": "uint256",
          "name": "vestingStart",
          "type": "uint256"
        },
        {
          "internalType": "bool",
          "name": "isActive",
          "type": "bool"
        }
      ],
      "stateMutability": "view",
      "type": "function",
      "constant": true
    },
    {
      "inputs": [],
      "name": "totalTeamAllocated",
      "outputs": [
        {
          "internalType": "uint256",
          "name": "",
          "type": "uint256"
        }
      ],
      "stateMutability": "view",
      "type": "function",
      "constant": true
    },
    {
      "inputs": [
        {
          "internalType": "address",
          "name": "to",
          "type": "address"
        },
        {
          "internalType": "uint256",
          "name": "amount",
          "type": "uint256"
        }
      ],
      "name": "transfer",
      "outputs": [
        {
          "internalType": "bool",
          "name": "",
          "type": "bool"
        }
      ],
      "stateMutability": "nonpayable",
      "type": "function"
    },
    {
      "inputs": [
        {
          "internalType": "address",
          "name": "",
          "type": "address"
        }
      ],
      "name": "transferDelayExempt",
      "outputs": [
        {
          "internalType": "bool",
          "name": "",
          "type": "bool"
        }
      ],
      "stateMutability": "view",
      "type": "function",
      "constant": true
    },
    {
      "inputs": [
        {
          "internalType": "address",
          "name": "from",
          "type": "address"
        },
        {
          "internalType": "address",
          "name": "to",
          "type": "address"
        },
        {
          "internalType": "uint256",
          "name": "amount",
          "type": "uint256"
        }
      ],
      "name": "transferFrom",
      "outputs": [
        {
          "internalType": "bool",
          "name": "",
          "type": "bool"
        }
      ],
      "stateMutability": "nonpayable",
      "type": "function"
    },
    {
      "inputs": [
        {
          "internalType": "address",
          "name": "newOwner",
          "type": "address"
        }
      ],
      "name": "transferOwnership",
      "outputs": [],
      "stateMutability": "nonpayable",
      "type": "function"
    },
    {
      "inputs": [],
      "name": "totalSupply",
      "outputs": [
        {
          "internalType": "uint256",
          "name": "",
          "type": "uint256"
        }
      ],
      "stateMutability": "view",
      "type": "function",
      "constant": true
    },
    {
      "inputs": [
        {
          "internalType": "address",
          "name": "member",
          "type": "address"
        },
        {
          "internalType": "uint256",
          "name": "allocation",
          "type": "uint256"
        }
      ],
      "name": "addTeamMember",
      "outputs": [],
      "stateMutability": "nonpayable",
      "type": "function"
    },
    {
      "inputs": [],
      "name": "claimTeamTokens",
      "outputs": [],
      "stateMutability": "nonpayable",
      "type": "function"
    },
    {
      "inputs": [
        {
          "internalType": "address",
          "name": "member",
          "type": "address"
        }
      ],
      "name": "calculateVestedAmount",
      "outputs": [
        {
          "internalType": "uint256",
          "name": "",
          "type": "uint256"
        }
      ],
      "stateMutability": "view",
      "type": "function",
      "constant": true
    },
    {
      "inputs": [
        {
          "internalType": "address",
          "name": "account",
          "type": "address"
        },
        {
          "internalType": "bool",
          "name": "exempt",
          "type": "bool"
        }
      ],
      "name": "setTransferDelayExempt",
      "outputs": [],
      "stateMutability": "nonpayable",
      "type": "function"
    },
    {
      "inputs": [],
      "name": "pause",
      "outputs": [],
      "stateMutability": "nonpayable",
      "type": "function"
    },
    {
      "inputs": [],
      "name": "unpause",
      "outputs": [],
      "stateMutability": "nonpayable",
      "type": "function"
    }
  ],
  "bytecode": "0x610160604081815234620005375762000018826200053c565b6009825260209182810191682c20a7902a37b5b2b760b91b9384845281519462000042866200053c565b600986528186015281519062000058826200053c565b60038083526258414f60e81b8284015283519662000076886200053c565b6001808952603160f81b848a0190815282516001600160401b03949192919085811162000437578154948386811c961680156200052c575b8887101462000516578190601f96878111620004c0575b50889087831160011462000459576000926200044d575b505060001982841b1c191690831b1781555b865190858211620004375760049788548481811c911680156200042c575b898210146200041757868111620003cc575b508790868411600114620003615793839491849260009562000355575b50501b92600019911b1c19161785555b620001568762000558565b97610120988952620001688a6200071c565b97610140988952519020988960e0525190209061010098828a524660a052865192858401917f8b73c3c69bb8fe3d512ecc4cf759cc79239f7b179b0ffacaa9a75d522b39400f83528885015260608401524660808401523060a084015260a0835260c0830193838510908511176200034057838752825190206080523060c052600980546001600160a81b0319811633600881811b610100600160a81b0316929092179093551c6001600160a01b03167f8be0079c531659141344cd1fd0a4f28419497f9722a3daafe3b4186f6b6457e0600080a3331562000300575050506002546b0295be96e64066972000000092838201809211620002eb57506000917fddf252ad1be2c89b69c2b068fc378daa952ba7f163c4a11628f55a4df523b3ef9160025533835282815284832084815401905584519384523393a35191611d149384620008d585396080518461196f015260a05184611a3b015260c05184611939015260e051846119be015251836119e4015251826109cc015251816109f60152f35b601190634e487b7160e01b6000525260246000fd5b7f45524332303a206d696e7420746f20746865207a65726f206164647265737300916101049160649562461bcd60e51b865260c483015260e48201520152fd5b604186634e487b7160e01b6000525260246000fd5b0151935038806200013b565b9190601f198416928a600052848a6000209460005b8c89838310620003b4575050501062000399575b50505050811b0185556200014b565b01519060f884600019921b161c19169055388080806200038a565b86860151895590970196948501948893500162000376565b89600052886000208780860160051c8201928b87106200040d575b0160051c019085905b828110620004005750506200011e565b60008155018590620003f0565b92508192620003e7565b60228a634e487b7160e01b6000525260246000fd5b90607f16906200010c565b634e487b7160e01b600052604160045260246000fd5b015190503880620000dc565b90859350601f19831691856000528a6000209260005b8c828210620004a9575050841162000490575b505050811b018155620000ee565b015160001983861b60f8161c1916905538808062000482565b83850151865589979095019493840193016200046f565b90915083600052886000208780850160051c8201928b86106200050c575b918791869594930160051c01915b828110620004fc575050620000c5565b60008155859450879101620004ec565b92508192620004de565b634e487b7160e01b600052602260045260246000fd5b95607f1695620000ae565b600080fd5b604081019081106001600160401b038211176200043757604052565b80516020919082811015620005f7575090601f8251116200059657808251920151908083106200058757501790565b82600019910360031b1b161790565b90604051809263305a27a960e01b82528060048301528251908160248401526000935b828510620005dd575050604492506000838284010152601f80199101168101030190fd5b8481018201518686016044015293810193859350620005b9565b6001600160401b03811162000437576005928354926001938481811c9116801562000711575b838210146200051657601f8111620006da575b5081601f841160011462000670575092829391839260009462000664575b50501b916000199060031b1c191617905560ff90565b0151925038806200064e565b919083601f1981168760005284600020946000905b88838310620006bf5750505010620006a5575b505050811b01905560ff90565b015160001960f88460031b161c1916905538808062000698565b85870151885590960195948501948793509081019062000685565b8560005284601f846000209201871c820191601f8601881c015b8281106200070457505062000630565b60008155018590620006f4565b90607f16906200061d565b805160209081811015620007aa5750601f8251116200074957808251920151908083106200058757501790565b90604051809263305a27a960e01b82528060048301528251908160248401526000935b82851062000790575050604492506000838284010152601f80199101168101030190fd5b84810182015186860160440152938101938593506200076c565b906001600160401b0382116200043757600654926001938481811c91168015620008c9575b838210146200051657601f81116200088f575b5081601f841160011462000823575092829391839260009462000817575b50501b916000199060031b1c19161760065560ff90565b01519250388062000800565b919083601f198116600660005284600020946000905b888383106200087457505050106200085a575b505050811b0160065560ff90565b015160001960f88460031b161c191690553880806200084c565b85870151885590960195948501948793509081019062000839565b600660005284601f84600020920160051c820191601f860160051c015b828110620008bc575050620007e2565b60008155018590620008ac565b90607f1690620007cf56fe608060408181526004918236101561001657600080fd5b600092833560e01c91826306fdde03146111c257508163095ea7b3146111985781630d2d8a311461116057816313758b681461114157816318160ddd14610df45781631ac3452b1461112457816323b872dd1461105a5781632af5356a14610e1b5781632ff2e9dc14610df4578163313ce56714610dd857816334d533f714610d9a5781633644e51514610d7d5781633950935114610d2d5781633f4ba83a14610c975781634cfc4d3014610c785781635c975abb14610c5457816363f3dbe514610c3657816370a0823114610bff578163715018a614610b9e5781637ecebe0014610b665781638456cb5914610ad257816384b0196e146109b45781638d13192b146107a75781638da5cb5b1461077a57816395d89b411461068f578163a457c2d7146105e7578163a9059cbb146105b6578163b3c95fe21461052d578163c836292b146104ce578163d505accf14610315578163dd62ed3e146102cc578163f2fde38b146101ef57508063fd99cbed146101ca5763ffa06b2a1461019b57600080fd5b346101c65760203660031901126101c6576020906101bf6101ba6112d3565b611c17565b9051908152f35b5080fd5b50346101c657816003193601126101c657602090516aa56fa5b99019a5c80000008152f35b9050346102c85760203660031901126102c85761020a6112d3565b610212611304565b6001600160a01b0381811693909290841561027657505060098054610100600160a81b03198116600893841b610100600160a81b031617909155901c167f8be0079c531659141344cd1fd0a4f28419497f9722a3daafe3b4186f6b6457e08380a380f35b906020608492519162461bcd60e51b8352820152602660248201527f4f776e61626c653a206e6577206f776e657220697320746865207a65726f206160448201526564647265737360d01b6064820152fd5b8280fd5b5050346101c657806003193601126101c657806020926102ea6112d3565b6102f26112ee565b6001600160a01b0391821683526001865283832091168252845220549051908152f35b839150346101c65760e03660031901126101c6576103316112d3565b6103396112ee565b906044359260643560843560ff811681036104ca578142116104875760018060a01b0390818516928389526007602052898920908154916001830190558a519060208201927f6e71edae12b1b97f4d1f60370fef10105fa2faae0126114a169c64845d6126c98452868d840152858a1660608401528a608084015260a083015260c082015260c0815260e0810181811067ffffffffffffffff821117610474578b5251902061041c91610414916103ee611936565b908c519161190160f01b83526002830152602282015260c43591604260a43592206118a7565b91909161178d565b1603610431575061042e93945061168b565b80f35b606490602087519162461bcd60e51b8352820152601e60248201527f45524332305065726d69743a20696e76616c6964207369676e617475726500006044820152fd5b634e487b7160e01b8b526041875260248bfd5b875162461bcd60e51b8152602081850152601d60248201527f45524332305065726d69743a206578706972656420646561646c696e650000006044820152606490fd5b8680fd5b5050346101c65760203660031901126101c65760809181906001600160a01b036104f66112d3565b168152600a602052209081549160018101549160ff6003600284015493015416928151948552602085015283015215156060820152f35b5050346101c657806003193601126101c6576105476112d3565b90602435918215158084036105b2577faa8aa83243031a8b4cddf3ecadd12e4d417b36f774f349ce9f8d1760abc67484926105aa602093610586611304565b60018060a01b031695868852600c85528288209060ff801983541691151516179055565b51908152a280f35b8480fd5b5050346101c657806003193601126101c6576020906105e06105d66112d3565b6024359033611410565b5160018152f35b9050823461068c578260031936011261068c576106026112d3565b918360243592338152600160205281812060018060a01b038616825260205220549082821061063b576020856105e0858503873361168b565b608490602086519162461bcd60e51b8352820152602560248201527f45524332303a2064656372656173656420616c6c6f77616e63652062656c6f77604482015264207a65726f60d81b6064820152fd5b80fd5b919050346102c857826003193601126102c857805191838154906106b28261135f565b8086529260019280841690811561074f57506001146106f3575b6106ef86866106dd828b03836113cb565b51918291602083526020830190611293565b0390f35b815294507f8a35acfbc15ff81a39ae7d344fd709f28e8600b4aa8c65c6b64bfe7fe36bd19b5b828610610737575050506106dd8260206106ef9582010194386106cc565b80546020878701810191909152909501948101610719565b90506106ef9750869350602092506106dd94915060ff191682840152151560051b82010194386106cc565b5050346101c657816003193601126101c657600954905160089190911c6001600160a01b03168152602090f35b8383346101c657806003193601126101c6576107c16112d3565b926024938435906107d0611304565b6001600160a01b031692831561098157838552602092600a845260ff6003838820015416610949578215610914576aa56fa5b99019a5c800000061081684600d546113ed565b116108d457815196608088019188831067ffffffffffffffff8411176108c35750507f3a039d423feae57db865758a88814c0404d53381c45d2caacd35f3991dc165619495966108ac91835283815260038582018981528483014281526060840191600183528a8c52600a8952868c209451855551600185015551600284015551151591019060ff801983541691151516179055565b6108b882600d546113ed565b600d5551908152a280f35b634e487b7160e01b88526041905286fd5b60178785606494519362461bcd60e51b85528401528201527f45786365656473207465616d20616c6c6f636174696f6e0000000000000000006044820152fd5b60128785606494519362461bcd60e51b85528401528201527124b73b30b634b21030b63637b1b0ba34b7b760711b6044820152fd5b60158785606494519362461bcd60e51b85528401528201527420b63932b0b23c9030903a32b0b69036b2b6b132b960591b6044820152fd5b5162461bcd60e51b8152602081840152600f818701526e496e76616c6964206164647265737360881b6044820152606490fd5b919050346102c857826003193601126102c8576109f07f0000000000000000000000000000000000000000000000000000000000000000611a61565b92610a1a7f0000000000000000000000000000000000000000000000000000000000000000611b5d565b908251926020928385019585871067ffffffffffffffff881117610abf57509280610a75838896610a68998b9996528686528151998a99600f60f81b8b5260e0868c015260e08b0190611293565b91898303908a0152611293565b924660608801523060808801528460a088015286840360c088015251928381520193925b828110610aa857505050500390f35b835185528695509381019392810192600101610a99565b634e487b7160e01b845260419052602483fd5b9050346102c857826003193601126102c857610aec611304565b6009549060ff8216610b30575060ff1916600117600955513381527f62e78cea01bee320cd4e420270b5ea74000d11b0c9f74754ebdbfc544b05a25890602090a180f35b606490602084519162461bcd60e51b8352820152601060248201526f14185d5cd8589b194e881c185d5cd95960821b6044820152fd5b5050346101c65760203660031901126101c65760209181906001600160a01b03610b8e6112d3565b1681526007845220549051908152f35b833461068c578060031936011261068c57610bb7611304565b60098054610100600160a81b03198116909155819060081c6001600160a01b03167f8be0079c531659141344cd1fd0a4f28419497f9722a3daafe3b4186f6b6457e08280a380f35b5050346101c65760203660031901126101c65760209181906001600160a01b03610c276112d3565b16815280845220549051908152f35b5050346101c657816003193601126101c6576020905162ed4e008152f35b5050346101c657816003193601126101c65760209060ff6009541690519015158152f35b5050346101c657816003193601126101c657602090516303b538008152f35b9050346102c857826003193601126102c857610cb1611304565b6009549060ff821615610cf3575060ff1916600955513381527f5db9ee0a495bf2e6ff9c91a7834c1ba4fdd244a5e8aa4e537bd38aeae4b073aa90602090a180f35b606490602084519162461bcd60e51b8352820152601460248201527314185d5cd8589b194e881b9bdd081c185d5cd95960621b6044820152fd5b5050346101c657806003193601126101c6576105e0602092610d76610d506112d3565b338352600186528483206001600160a01b038216845286529184902054602435906113ed565b903361168b565b5050346101c657816003193601126101c6576020906101bf611936565b5050346101c65760203660031901126101c65760209160ff9082906001600160a01b03610dc56112d3565b168152600c855220541690519015158152f35b5050346101c657816003193601126101c6576020905160128152f35b5050346101c657816003193601126101c657602090516b033b2e3c9fd0803ce80000008152f35b919050346102c857826003193601126102c857338352602090600a82528084209260ff6003850154161561102557600284015462ed4e008101809111611012574210610fd9576001610e6c33611c17565b9401805480860395808711610fc6578114610f8e5785610e8b916113ed565b90553315610f4d5760ff60095416610f145750907f32a7537ee28ab9e44edfe4f55db5f08bf3a2bc8c09f2b5e0eaf20715d2609eab91610ecd846002546113ed565b6002553385528482528085208481540190558051848152857fddf252ad1be2c89b69c2b068fc378daa952ba7f163c4a11628f55a4df523b3ef843393a3519283523392a280f35b82606492519162461bcd60e51b83528201526015602482015274151bdad95b881d1c985b9cd9995c881c185d5cd959605a1b6044820152fd5b82606492519162461bcd60e51b8352820152601f60248201527f45524332303a206d696e7420746f20746865207a65726f2061646472657373006044820152fd5b835162461bcd60e51b815280840186905260126024820152714e6f20746f6b656e7320746f20636c61696d60701b6044820152606490fd5b634e487b7160e01b885260118452602488fd5b82606492519162461bcd60e51b8352820152601560248201527414dd1a5b1b081a5b8818db1a5999881c195c9a5bd9605a1b6044820152fd5b634e487b7160e01b865260118252602486fd5b82606492519162461bcd60e51b835282015260116024820152702737ba1030903a32b0b69036b2b6b132b960791b6044820152fd5b839150346101c65760603660031901126101c6576110766112d3565b61107e6112ee565b91846044359460018060a01b0384168152600160205281812033825260205220549060001982036110b8575b6020866105e0878787611410565b8482106110e157509183916110d6602096956105e09503338361168b565b9193948193506110aa565b606490602087519162461bcd60e51b8352820152601d60248201527f45524332303a20696e73756666696369656e7420616c6c6f77616e63650000006044820152fd5b5050346101c657816003193601126101c65760209051610e108152f35b5050346101c657816003193601126101c657602090600d549051908152f35b5050346101c65760203660031901126101c65760209181906001600160a01b036111886112d3565b168152600b845220549051908152f35b5050346101c657806003193601126101c6576020906105e06111b86112d3565b602435903361168b565b849084346102c857826003193601126102c857826003546111e28161135f565b8085529160019180831690811561126b575060011461120e575b5050506106dd826106ef9403836113cb565b9450600385527fc2575a0e9e593c00f959f8c92f12db2869c3395a3b0502d05e2516446f71f85b5b828610611253575050506106dd8260206106ef95820101946111fc565b80546020878701810191909152909501948101611236565b6106ef9750869350602092506106dd94915060ff191682840152151560051b820101946111fc565b919082519283825260005b8481106112bf575050826000602080949584010152601f8019910116010190565b60208183018101518483018201520161129e565b600435906001600160a01b03821682036112e957565b600080fd5b602435906001600160a01b03821682036112e957565b60095460081c6001600160a01b0316330361131b57565b606460405162461bcd60e51b815260206004820152602060248201527f4f776e61626c653a2063616c6c6572206973206e6f7420746865206f776e65726044820152fd5b90600182811c9216801561138f575b602083101461137957565b634e487b7160e01b600052602260045260246000fd5b91607f169161136e565b6040810190811067ffffffffffffffff8211176113b557604052565b634e487b7160e01b600052604160045260246000fd5b90601f8019910116810190811067ffffffffffffffff8211176113b557604052565b919082018092116113fa57565b634e487b7160e01b600052601160045260246000fd5b6001600160a01b03908116801580159491939192919061163857169283156115e75760ff600954166115aa578080611591575b611531575b80611518575b611503575b6000828152806020526040812054918083106114af57604082827fddf252ad1be2c89b69c2b068fc378daa952ba7f163c4a11628f55a4df523b3ef958760209652828652038282205586815220818154019055604051908152a3565b60405162461bcd60e51b815260206004820152602660248201527f45524332303a207472616e7366657220616d6f756e7420657863656564732062604482015265616c616e636560d01b6064820152608490fd5b81600052600b60205242604060002055611453565b5081600052600c60205260ff604060002054161561144e565b82600052600b602052604060002054610e1081018091116113fa574210156114485760405162461bcd60e51b8152602060048201526016602482015275151c985b9cd9995c8819195b185e481b9bdd081b595d60521b6044820152606490fd5b5082600052600c60205260ff6040600020541615611443565b60405162461bcd60e51b8152602060048201526015602482015274151bdad95b881d1c985b9cd9995c881c185d5cd959605a1b6044820152606490fd5b60405162461bcd60e51b815260206004820152602360248201527f45524332303a207472616e7366657220746f20746865207a65726f206164647260448201526265737360e81b6064820152608490fd5b60405162461bcd60e51b815260206004820152602560248201527f45524332303a207472616e736665722066726f6d20746865207a65726f206164604482015264647265737360d81b6064820152608490fd5b6001600160a01b0390811691821561173c57169182156116ec5760207f8c5be1e5ebec7d5bd14f71427d1e84f3dd0314c0f7b2291e5b200ac8c7c3b925918360005260018252604060002085600052825280604060002055604051908152a3565b60405162461bcd60e51b815260206004820152602260248201527f45524332303a20617070726f766520746f20746865207a65726f206164647265604482015261737360f01b6064820152608490fd5b60405162461bcd60e51b8152602060048201526024808201527f45524332303a20617070726f76652066726f6d20746865207a65726f206164646044820152637265737360e01b6064820152608490fd5b6005811015611891578061179e5750565b600181036117eb5760405162461bcd60e51b815260206004820152601860248201527f45434453413a20696e76616c6964207369676e617475726500000000000000006044820152606490fd5b600281036118385760405162461bcd60e51b815260206004820152601f60248201527f45434453413a20696e76616c6964207369676e6174757265206c656e677468006044820152606490fd5b60031461184157565b60405162461bcd60e51b815260206004820152602260248201527f45434453413a20696e76616c6964207369676e6174757265202773272076616c604482015261756560f01b6064820152608490fd5b634e487b7160e01b600052602160045260246000fd5b9291907f7fffffffffffffffffffffffffffffff5d576e7357a4501ddfe92f46681b20a0831161192a5791608094939160ff602094604051948552168484015260408301526060820152600093849182805260015afa1561191d5781516001600160a01b03811615611917579190565b50600190565b50604051903d90823e3d90fd5b50505050600090600390565b307f00000000000000000000000000000000000000000000000000000000000000006001600160a01b03161480611a38575b15611991577f000000000000000000000000000000000000000000000000000000000000000090565b60405160208101907f8b73c3c69bb8fe3d512ecc4cf759cc79239f7b179b0ffacaa9a75d522b39400f82527f000000000000000000000000000000000000000000000000000000000000000060408201527f000000000000000000000000000000000000000000000000000000000000000060608201524660808201523060a082015260a0815260c0810181811067ffffffffffffffff8211176113b55760405251902090565b507f00000000000000000000000000000000000000000000000000000000000000004614611968565b60ff8114611a9f5760ff811690601f8211611a8d5760405191611a8383611399565b8252602082015290565b604051632cd44ac360e21b8152600490fd5b50604051600554816000611ab28361135f565b80835292600190818116908115611b3b5750600114611adc575b50611ad9925003826113cb565b90565b6005600090815291507f036b6384b5eca791c62761152d0c79bb0604c104a5fb6f4eb0703f3154bb3db05b848310611b205750611ad9935050810160200138611acc565b81935090816020925483858901015201910190918492611b07565b905060209250611ad994915060ff191682840152151560051b82010138611acc565b60ff8114611b7f5760ff811690601f8211611a8d5760405191611a8383611399565b50604051600654816000611b928361135f565b80835292600190818116908115611b3b5750600114611bb85750611ad9925003826113cb565b6006600090815291507ff652222313e28459528d920b65115c16c04f3efc82aaedc97be59f3f377c0d3f5b848310611bfc5750611ad9935050810160200138611acc565b81935090816020925483858901015201910190918492611be3565b6001600160a01b03166000908152600a60205260408120600381015490919060ff1615611cd95760028201549062ed4e008201808311611ca3574210611cd3576303b5380092838301808411611cbf57421015611cb7575491420391428311611ca357828102928184041490151715611c8f57500490565b634e487b7160e01b81526011600452602490fd5b634e487b7160e01b82526011600452602482fd5b925050505490565b634e487b7160e01b83526011600452602483fd5b91505090565b90509056fea2646970667358221220077d42569b1c9fbc6135518519ec0966a5dda4d75a2f2fc47ea8f488b94b51f664736f6c63430008130033",
  "immutableReferences": {
    "6051": [
      {
        "length": 32,
        "start": 6511
      }
    ],
    "6053": [
      {
        "length": 32,
        "start": 6715
      }
    ],
    "6055": [
      {
        "length": 32,
        "start": 6457
      }
    ],
    "6057": [
      {
        "length": 32,
        "start": 6590
      }
    ],
    "6059": [
      {
        "length": 32,
        "start": 6628
      }
    ],
    "6062": [
      {
        "length": 32,
        "start": 2508
      }
    ],
    "6065": [
      {
        "length": 32,
        "start": 2550
      }
    ]
  },
  "source": "// SPDX-License-Identifier: MIT\npragma solidity ^0.8.19;\n\nimport \"@openzeppelin/contracts/token/ERC20/ERC20.sol\";\nimport \"@openzeppelin/contracts/token/ERC20/extensions/ERC20Permit.sol\";\nimport \"@openzeppelin/contracts/security/Pausable.sol\";\nimport \"@openzeppelin/contracts/access/Ownable.sol\";\nimport \"@openzeppelin/contracts/utils/math/SafeMath.sol\";\n\n/// @title XAO Token Contract\n/// @author XAO Protocol Team\n/// @notice This is the main token contract for the XAO ecosystem\n/// @dev Implementation of the XAO token with pausable and permit functionality\ncontract XAOToken is ERC20, ERC20Permit, Pausable, Ownable {\n    using SafeMath for uint256;\n\n    /// @notice The total initial supply of XAO tokens (1 billion)\n    /// @dev Stored as a constant with 18 decimal places\n    uint256 public constant INITIAL_SUPPLY = 1_000_000_000 * 10**18;\n\n    /// @notice The portion of tokens allocated to the team (20%)\n    uint256 public constant TEAM_ALLOCATION = INITIAL_SUPPLY * 20 / 100;\n\n    /// @notice The vesting cliff period for team tokens\n    uint256 public constant VESTING_CLIFF = 180 days;\n\n    /// @notice The total vesting duration for team tokens\n    uint256 public constant VESTING_DURATION = 720 days;\n\n    /// @notice The minimum delay between transfers (anti flash loan)\n    uint256 public constant TRANSFER_DELAY = 1 hours;\n\n    /// @notice Struct to track team member vesting details\n    struct TeamMember {\n        uint256 allocation;\n        uint256 claimed;\n        uint256 vestingStart;\n        bool isActive;\n    }\n\n    /// @notice Mapping of team member addresses to their vesting details\n    mapping(address => TeamMember) public teamMembers;\n\n    /// @notice Mapping to track last transfer timestamp for each address\n    mapping(address => uint256) public lastTransferTime;\n\n    /// @notice Mapping to track addresses exempt from transfer delay\n    mapping(address => bool) public transferDelayExempt;\n\n    /// @notice Total amount of team tokens allocated\n    uint256 public totalTeamAllocated;\n\n    /// @notice Emitted when a team member is added\n    event TeamMemberAdded(address indexed member, uint256 allocation);\n\n    /// @notice Emitted when team tokens are claimed\n    event TeamTokensClaimed(address indexed member, uint256 amount);\n\n    /// @notice Emitted when transfer delay exemption is updated\n    event TransferDelayExemptionUpdated(address indexed account, bool exempt);\n\n    /// @notice Creates a new XAO token contract\n    /// @dev Initializes the ERC20 token with name, symbol, and mints initial supply\n    constructor() ERC20(\"XAO Token\", \"XAO\") ERC20Permit(\"XAO Token\") {\n        // Mint initial supply minus team allocation to deployer\n        _mint(msg.sender, INITIAL_SUPPLY.sub(TEAM_ALLOCATION));\n    }\n\n    /// @notice Returns the total token supply including reserved team allocation\n    /// @dev Overrides ERC20 totalSupply() to include both circulating and reserved tokens\n    function totalSupply() public view virtual override returns (uint256) {\n        return INITIAL_SUPPLY;\n    }\n\n    /// @notice Adds a new team member with token allocation\n    /// @dev Can only be called by the contract owner\n    /// @param member Address of the team member\n    /// @param allocation Amount of tokens allocated to the member\n    function addTeamMember(address member, uint256 allocation) external onlyOwner {\n        require(member != address(0), \"Invalid address\");\n        require(!teamMembers[member].isActive, \"Already a team member\");\n        require(allocation > 0, \"Invalid allocation\");\n        require(totalTeamAllocated.add(allocation) <= TEAM_ALLOCATION, \"Exceeds team allocation\");\n\n        teamMembers[member] = TeamMember({\n            allocation: allocation,\n            claimed: 0,\n            vestingStart: block.timestamp,\n            isActive: true\n        });\n\n        totalTeamAllocated = totalTeamAllocated.add(allocation);\n        emit TeamMemberAdded(member, allocation);\n    }\n\n    /// @notice Claims vested team tokens\n    /// @dev Transfers available vested tokens to the team member\n    function claimTeamTokens() external {\n        TeamMember storage teamMember = teamMembers[msg.sender];\n        require(teamMember.isActive, \"Not a team member\");\n        require(\n            block.timestamp >= teamMember.vestingStart.add(VESTING_CLIFF),\n            \"Still in cliff period\"\n        );\n\n        uint256 vestedAmount = calculateVestedAmount(msg.sender);\n        uint256 claimableAmount = vestedAmount.sub(teamMember.claimed);\n        require(claimableAmount > 0, \"No tokens to claim\");\n\n        teamMember.claimed = teamMember.claimed.add(claimableAmount);\n        _mint(msg.sender, claimableAmount);\n\n        emit TeamTokensClaimed(msg.sender, claimableAmount);\n    }\n\n    /// @notice Calculates vested tokens for a team member\n    /// @dev Takes into account cliff and linear vesting schedule\n    /// @param member Address of the team member\n    /// @return Amount of tokens vested\n    function calculateVestedAmount(address member) public view returns (uint256) {\n        TeamMember storage teamMember = teamMembers[member];\n        if (!teamMember.isActive) return 0;\n\n        if (block.timestamp < teamMember.vestingStart.add(VESTING_CLIFF)) {\n            return 0;\n        }\n\n        if (block.timestamp >= teamMember.vestingStart.add(VESTING_DURATION)) {\n            return teamMember.allocation;\n        }\n\n        return teamMember.allocation.mul(\n            block.timestamp.sub(teamMember.vestingStart)\n        ).div(VESTING_DURATION);\n    }\n\n    /// @notice Sets transfer delay exemption status for an address\n    /// @dev Can only be called by the contract owner\n    /// @param account Address to update exemption status\n    /// @param exempt Whether the address should be exempt from transfer delays\n    function setTransferDelayExempt(address account, bool exempt) external onlyOwner {\n        transferDelayExempt[account] = exempt;\n        emit TransferDelayExemptionUpdated(account, exempt);\n    }\n\n    /// @notice Pauses all token transfers\n    /// @dev Can only be called by the contract owner\n    function pause() public onlyOwner {\n        _pause();\n    }\n\n    /// @notice Unpauses all token transfers\n    /// @dev Can only be called by the contract owner\n    function unpause() public onlyOwner {\n        _unpause();\n    }\n\n    /// @notice Hook that is called before any transfer of tokens\n    /// @dev Ensures transfers cannot occur while paused and enforces transfer delay\n    /// @param from The address tokens are transferred from\n    /// @param to The address tokens are transferred to\n    /// @param amount The amount of tokens to be transferred\n    function _beforeTokenTransfer(\n        address from,\n        address to,\n        uint256 amount\n    ) internal virtual override {\n        require(!paused(), \"Token transfer paused\");\n\n        // Check transfer delay for non-exempt addresses and non-minting transfers\n        if (from != address(0) && !transferDelayExempt[from]) {\n            require(\n                block.timestamp >= lastTransferTime[from].add(TRANSFER_DELAY),\n                \"Transfer delay not met\"\n            );\n        }\n\n        super._beforeTokenTransfer(from, to, amount);\n\n        // Update last transfer time after successful transfer\n        if (from != address(0) && !transferDelayExempt[from]) {\n            lastTransferTime[from] = block.timestamp;\n        }\n    }\n}",
  "sourcePath": "/home/runner/workspace/contracts/XAOToken.sol",
  "compiler": {
    "name": "solc",
    "version": "0.8.19+commit.7dd6d404.Emscripten.clang"
  },
  "schemaVersion": "3.4.16",
  "updatedAt": "2025-03-01T00:09:28.565Z",
  "networkType": "ethereum",
  "devdoc": {
    "author": "XAO Protocol Team",
    "details": "Implementation of the XAO token with pausable and permit functionality",
    "events": {
      "Approval(address,address,uint256)": {
        "details": "Emitted when the allowance of a `spender` for an `owner` is set by a call to {approve}. `value` is the new allowance."
      },
      "EIP712DomainChanged()": {
        "details": "MAY be emitted to signal that the domain could have changed."
      },
      "Paused(address)": {
        "details": "Emitted when the pause is triggered by `account`."
      },
      "Transfer(address,address,uint256)": {
        "details": "Emitted when `value` tokens are moved from one account (`from`) to another (`to`). Note that `value` may be zero."
      },
      "Unpaused(address)": {
        "details": "Emitted when the pause is lifted by `account`."
      }
    },
    "kind": "dev",
    "methods": {
      "DOMAIN_SEPARATOR()": {
        "details": "Returns the domain separator used in the encoding of the signature for {permit}, as defined by {EIP712}."
      },
      "addTeamMember(address,uint256)": {
        "details": "Can only be called by the contract owner",
        "params": {
          "allocation": "Amount of tokens allocated to the member",
          "member": "Address of the team member"
        }
      },
      "allowance(address,address)": {
        "details": "See {IERC20-allowance}."
      },
      "approve(address,uint256)": {
        "details": "See {IERC20-approve}. NOTE: If `amount` is the maximum `uint256`, the allowance is not updated on `transferFrom`. This is semantically equivalent to an infinite approval. Requirements: - `spender` cannot be the zero address."
      },
      "balanceOf(address)": {
        "details": "See {IERC20-balanceOf}."
      },
      "calculateVestedAmount(address)": {
        "details": "Takes into account cliff and linear vesting schedule",
        "params": {
          "member": "Address of the team member"
        },
        "returns": {
          "_0": "Amount of tokens vested"
        }
      },
      "claimTeamTokens()": {
        "details": "Transfers available vested tokens to the team member"
      },
      "constructor": {
        "details": "Initializes the ERC20 token with name, symbol, and mints initial supply"
      },
      "decimals()": {
        "details": "Returns the number of decimals used to get its user representation. For example, if `decimals` equals `2`, a balance of `505` tokens should be displayed to a user as `5.05` (`505 / 10 ** 2`). Tokens usually opt for a value of 18, imitating the relationship between Ether and Wei. This is the default value returned by this function, unless it's overridden. NOTE: This information is only used for _display_ purposes: it in no way affects any of the arithmetic of the contract, including {IERC20-balanceOf} and {IERC20-transfer}."
      },
      "decreaseAllowance(address,uint256)": {
        "details": "Atomically decreases the allowance granted to `spender` by the caller. This is an alternative to {approve} that can be used as a mitigation for problems described in {IERC20-approve}. Emits an {Approval} event indicating the updated allowance. Requirements: - `spender` cannot be the zero address. - `spender` must have allowance for the caller of at least `subtractedValue`."
      },
      "eip712Domain()": {
        "details": "See {EIP-5267}. _Available since v4.9._"
      },
      "increaseAllowance(address,uint256)": {
        "details": "Atomically increases the allowance granted to `spender` by the caller. This is an alternative to {approve} that can be used as a mitigation for problems described in {IERC20-approve}. Emits an {Approval} event indicating the updated allowance. Requirements: - `spender` cannot be the zero address."
      },
      "name()": {
        "details": "Returns the name of the token."
      },
      "nonces(address)": {
        "details": "Returns the current nonce for `owner`. This value must be included whenever a signature is generated for {permit}. Every successful call to {permit} increases ``owner``'s nonce by one. This prevents a signature from being used multiple times."
      },
      "owner()": {
        "details": "Returns the address of the current owner."
      },
      "pause()": {
        "details": "Can only be called by the contract owner"
      },
      "paused()": {
        "details": "Returns true if the contract is paused, and false otherwise."
      },
      "permit(address,address,uint256,uint256,uint8,bytes32,bytes32)": {
        "details": "Sets `value` as the allowance of `spender` over ``owner``'s tokens, given ``owner``'s signed approval. IMPORTANT: The same issues {IERC20-approve} has related to transaction ordering also apply here. Emits an {Approval} event. Requirements: - `spender` cannot be the zero address. - `deadline` must be a timestamp in the future. - `v`, `r` and `s` must be a valid `secp256k1` signature from `owner` over the EIP712-formatted function arguments. - the signature must use ``owner``'s current nonce (see {nonces}). For more information on the signature format, see the https://eips.ethereum.org/EIPS/eip-2612#specification[relevant EIP section]. CAUTION: See Security Considerations above."
      },
      "renounceOwnership()": {
        "details": "Leaves the contract without owner. It will not be possible to call `onlyOwner` functions. Can only be called by the current owner. NOTE: Renouncing ownership will leave the contract without an owner, thereby disabling any functionality that is only available to the owner."
      },
      "setTransferDelayExempt(address,bool)": {
        "details": "Can only be called by the contract owner",
        "params": {
          "account": "Address to update exemption status",
          "exempt": "Whether the address should be exempt from transfer delays"
        }
      },
      "symbol()": {
        "details": "Returns the symbol of the token, usually a shorter version of the name."
      },
      "totalSupply()": {
        "details": "Overrides ERC20 totalSupply() to include both circulating and reserved tokens"
      },
      "transfer(address,uint256)": {
        "details": "See {IERC20-transfer}. Requirements: - `to` cannot be the zero address. - the caller must have a balance of at least `amount`."
      },
      "transferFrom(address,address,uint256)": {
        "details": "See {IERC20-transferFrom}. Emits an {Approval} event indicating the updated allowance. This is not required by the EIP. See the note at the beginning of {ERC20}. NOTE: Does not update the allowance if the current allowance is the maximum `uint256`. Requirements: - `from` and `to` cannot be the zero address. - `from` must have a balance of at least `amount`. - the caller must have allowance for ``from``'s tokens of at least `amount`."
      },
      "transferOwnership(address)": {
        "details": "Transfers ownership of the contract to a new account (`newOwner`). Can only be called by the current owner."
      },
      "unpause()": {
        "details": "Can only be called by the contract owner"
      }
    },
    "stateVariables": {
      "INITIAL_SUPPLY": {
        "details": "Stored as a constant with 18 decimal places"
      }
    },
    "title": "XAO Token Contract",
    "version": 1
  },
  "userdoc": {
    "events": {
      "TeamMemberAdded(address,uint256)": {
        "notice": "Emitted when a team member is added"
      },
      "TeamTokensClaimed(address,uint256)": {
        "notice": "Emitted when team tokens are claimed"
      },
      "TransferDelayExemptionUpdated(address,bool)": {
        "notice": "Emitted when transfer delay exemption is updated"
      }
    },
    "kind": "user",
    "methods": {
      "INITIAL_SUPPLY()": {
        "notice": "The total initial supply of XAO tokens (1 billion)"
      },
      "TEAM_ALLOCATION()": {
        "notice": "The portion of tokens allocated to the team (20%)"
      },
      "TRANSFER_DELAY()": {
        "notice": "The minimum delay between transfers (anti flash loan)"
      },
      "VESTING_CLIFF()": {
        "notice": "The vesting cliff period for team tokens"
      },
      "VESTING_DURATION()": {
        "notice": "The total vesting duration for team tokens"
      },
      "addTeamMember(address,uint256)": {
        "notice": "Adds a new team member with token allocation"
      },
      "calculateVestedAmount(address)": {
        "notice": "Calculates vested tokens for a team member"
      },
      "claimTeamTokens()": {
        "notice": "Claims vested team tokens"
      },
      "constructor": {
        "notice": "Creates a new XAO token contract"
      },
      "lastTransferTime(address)": {
        "notice": "Mapping to track last transfer timestamp for each address"
      },
      "pause()": {
        "notice": "Pauses all token transfers"
      },
      "setTransferDelayExempt(address,bool)": {
        "notice": "Sets transfer delay exemption status for an address"
      },
      "teamMembers(address)": {
        "notice": "Mapping of team member addresses to their vesting details"
      },
      "totalSupply()": {
        "notice": "Returns the total token supply including reserved team allocation"
      },
      "totalTeamAllocated()": {
        "notice": "Total amount of team tokens allocated"
      },
      "transferDelayExempt(address)": {
        "notice": "Mapping to track addresses exempt from transfer delay"
      },
      "unpause()": {
        "notice": "Unpauses all token transfers"
      }
    },
    "notice": "This is the main token contract for the XAO ecosystem",
    "version": 1
  }
}